:020000040800F2
:10000000F007002065010008671B0008D9170008E9
:1000100000000000000000000000000000000000E0
:100020000000000000000000000000006B1B000842
:100030000000000000000000691B00086D1B0008A4
:1000400077010008770100087701000877010008B0
:1000500077010008770100087701000877010008A0
:100060007701000877010008770100087701000890
:100070007701000877010008770100087701000880
:1000800077010008770100087701000800000000F0
:100090007701000877010008770100087701000860
:1000A0007701000877010008770100087701000850
:1000B0007701000877010008770100087701000840
:1000C00000F002F800F03EF80CA030C80838241800
:1000D0002D18671EA246AB4654465D46AC4201D180
:1000E00000F030F87E460F3EB6460FCC0126334274
:1000F00000D0FB1A3343A246AB4618474424000005
:1001000064240000103A02D378C878C1FAD85207A4
:1001100001D330C830C101D504680C6070470000BD
:100120000023002400250026103A01D378C1FBD813
:10013000520700D330C100D50B6070471FB51FBDFB
:1001400010B510BD00F0D5F81146FFF7F7FF01F02C
:10015000C9FF00F0EDF803B4FFF7F2FF03BC00F0B5
:10016000F3F800000748804707480047FEE7FEE72E
:10017000FEE7FEE7FEE7FEE704480549054A064BB1
:1001800070470000751B0008C1000008F001002046
:10019000F0070020F0030020F0030020FEB5044625
:1001A00010460D46184373D0A6468C460020A41A6C
:1001B00001469D4167D36646002701243D46B61A95
:1001C0009D4102D313463A462124654676462F04C4
:1001D000360C3E432D0CB61A9D4104D3150C1B045E
:1001E0002B4312041034654676462F06360A3E43EA
:1001F0002D0AB61A9D4104D3150E1B022B43120281
:100200000834654676462F0736093E432D09B61A4F
:100210009D4104D3150F1B012B431201241D65467C
:100220007646AF07B6083E43AD08B61A9D4104D3E3
:10023000950F9B002B439200A41C65467646EF0762
:1002400076083E436D08B61A9D411AD392185B4159
:10025000641C16E00018764665464941B71A9D4170
:100260000191009009D36046B11A98418E468446A8
:10027000009801990025401C6941DD0752082A4376
:100280005B08641EE6D57246634603B0F0BDFFE727
:100290002046284307D00020C0430146C046C04640
:1002A00022462B46F1E700200146F7E701E004C0B3
:1002B000091F0429FBD28B0701D50280801CC907C6
:1002C00000D00270704700290BD0C30702D0027023
:1002D000401C491E022904D3830702D50280801CDA
:1002E000891EE3E70022EEE70022DFE77047704750
:1002F0007047754600F024F8AE460500694653463F
:10030000C008C000854618B020B5FFF735FF60BCB7
:10031000B64600260027C0C5C0C5C0C5C0C5C0C5FB
:10032000C0C5C0C5C0C5403D490849008D4670479D
:1003300010B50446C046C0462046FFF70CFF10BD6E
:10034000004870471000002001491820ABBEFEE7AE
:100350002600020070470000F0B58AB001900991B4
:100360000A68002A00D1B7E05C48019B834201D0B3
:10037000062000E005200B2109075B180A21CB416C
:100380000093052B00D300900026354634460BE041
:1003900011433960641C099802681046E040B61C9D
:1003A0002D1D002800D197E001210846A040024001
:1003B000F0D0029404920591089503252946B14096
:1003C000CA43099934464E6833462B405F1E012FBD
:1003D00007920696039410D80F4601998D68154030
:1003E000FF68A7402F438F60F506ED0F029CA540E4
:1003F0004F6887432F434F6008E0032B029C05D1D1
:100400002B46019F089D049A039E22E0019FF868F5
:100410000799084009998D68039EB5400543FD6022
:10042000022B089D049A14D11C2028400F218140E2
:10043000E3089B00FB1806931D6A8D43099B19690D
:1004400081402943089D069801625868032306905D
:100450000340B3403868079908401843386006984D
:100460008003800F059B95D01E49086818430860DB
:100470000C2028400F218140032325469D431A4F1D
:10048000EB598B43009981401943E951144FB968E6
:1004900009984068C30201D5114300E09143089DCB
:1004A000B960F96883020AD51143F960796883035A
:1004B0000AD4914379603968C0030BD568E791434A
:1004C000F96079688303F4D5114379603968C00312
:1004D00000D55DE791435CE70AB0F0BD001C005019
:1004E0000004014034100240080001400148006847
:1004F0007047C046E8010020B0B5024603464033CD
:100500005C780220202C17D11C78012C14D02420D8
:100510005870106802680124A24302602203056833
:100520009543056002680A43026001682143016047
:100530000020187020215970B0BDB0B502460346A6
:1005400040335C780220202C17D11C78012C14D069
:1005500024205870106802680124A24302600F2210
:10056000120205689543090229430160016821438D
:1005700001600020187020215970B0BDF0B581B025
:10058000002822D00446054640356878002804D16A
:1005900000202870204600F05BF924206870206855
:1005A000026801218A4302600F22120663689343A6
:1005B00003618368194A13408360A368E668012ECB
:1005C00006D1CE03334383600AE0012001B0F0BDC1
:1005D0002127BF023B438360022E01D1CB0243603F
:1005E00043680F4E1E434660C3681340C3602269D0
:1005F00063691343A26912021A43C260E269236A63
:100600001343036002680A430260002060642021F3
:1006100069702063A87001B0F0BDC046FF7FFFFF86
:1006200000800002F0B589B0044606464036707876
:100630000225202847D10E9F002F41D00F98002877
:100640003ED00590307801283DD003930292069168
:10065000012007903070FFF749FF03462068816949
:100660000904089332D41099079122217170402116
:10067000B1700022049262640599618567626263C9
:100680006C49069A0A40039FF9B209040692891838
:100690004268694D2A40891801256A03891841601A
:1006A000204607991A4601F00BFA0028049843D116
:1006B0002068012F26D10299C9B28162089F31E0DA
:1006C000012568026064284609B0F0BD0798C5039B
:1006D00002E081692942C6D0FFF708FF089BC11AD2
:1006E00020681A29F5D381692942F2D0606C202153
:1006F00008436064717000203070B070079D284618
:1007000009B0F0BD0299090A816220460799089F45
:100710003A4601F0D5F9002804980DD120680299D5
:10072000C9B28162079B009740210022204601F058
:1007300015F90028049803D03070284609B0F0BDA0
:10074000608D000A07D0206841683B4A1140021DB5
:10075000FF203B4B09E0608D2268536836490B400F
:10076000C1B209041943121D344B1943069B1943A6
:1007700011602085089A079B14E0608D2085216810
:100780004A68304B1A40C0B200041043012252069E
:10079000091D069B104318430860608D0028089AC5
:1007A000079B31D000920421002720463A4601F0F1
:1007B000D5F8002887D1606A2168496A0170608D88
:1007C000401E6085606A401C6062208D401E20854E
:1007D000618D0029E1D00004DFD1089800908021CC
:1007E00000222046079B01F0B9F8002800D06AE7F4
:1007F000608D000AC1D0FF20208521684868114A19
:100800001040091D104AC4E72046194601F015F9A9
:10081000002800D057E720682021C16142680B4BB7
:100820001340436071703770B7703D46284609B079
:10083000F0BDC046FF030000009800FC0024000249
:100840000024FF01009C00FC0000FF0100E800FE06
:10085000B0B586B0002105910491039102910191F8
:100860000068194C194A904211D0194A904228D177
:1008700020680222104320602068104000900098F9
:100880000120450503200202134804230CE02068E0
:10089000042210432060206810400090009801203E
:1008A00085070C4807230322059303230493039130
:1008B00012210291019201A9FFF74EFDE068284341
:1008C000E06006B0B0BDC0462C1002400078004089
:1008D0000054004000080050000400501D480078FB
:1008E00002490A68101808607047C046E8010020F5
:1008F00080B50848016840220A430260032000F0E6
:100900000BF8002801D0012080BD00F027F800205E
:1009100080BDC0460020024070B504467D20C00066
:100920000C4E317801F0F8FC01460B48006801F0EC
:10093000F3FC00F089FD0125032C08D8002806D11E
:100940000025E84321462A4600F014F87460284642
:1009500070BDC04600000020080000200448016867
:10096000012211430160110742680A434260704747
:1009700034100240002805D40322034693430A4A58
:100980009A1803E00C220240064BD2188007C00ED2
:100990008901C9B28140FF2383401068984308430E
:1009A0001060704714ED00E000E400E0F0B589B09D
:1009B000066801252F02EA0211462031884B0E42BB
:1009C0007DD0059208902907143B186808400490D0
:1009D00002D118680843186002930391814C206883
:1009E000384211D1206838432060FFF77FFD06466A
:1009F0002068384208D1FFF779FD801B6428F7D9B9
:100A00000325284609B0F0BD0326340574484C3848
:100A1000069001682140089B5868024622400096D3
:100A2000360491420AD19A68224091423246069E8B
:100A30000DD001461140914206D008E001463140F8
:100A4000B1423246069E02D131688903D9D401945D
:100A5000634B59680792114021D0079A1040814298
:100A600003D00898007880060AD408988068079A0E
:100A70001040814213D008980068059908420ED0B2
:100A80005868E9045A680A435A605A688A435A60A7
:100A90000146079A91435960384200D08DE008988A
:100AA000066805990E425AD1B106019C6ED404998C
:100AB000002904D1029C2168039A91432160F10727
:100AC0000DD1B10713D4710719D4310720D43E4298
:100AD00027D171062ED40025310692D535E019684C
:100AE00003229143C2680A431A60B107EBD5196823
:100AF0000C22914302690A431A607107E5D503216C
:100B000089021A688A434169114319603107DED5A9
:100B1000032109031A688A438169114319603E421F
:100B2000D7D0032109041A688A43C16911431960A7
:100B30007106D0D5012189061A688A43416A11439A
:100B400019600025310600D45BE703218A04196887
:100B50009143006A08431860284609B0F0BD8268D6
:100B60001146079C2140A1420AD10198024003236B
:100B70001B05069D2C689C43194B089814432C6058
:100B80005A680A435A60B106019C90D542681146E2
:100B9000079D2940A94209D1224003231B05069D38
:100BA0002C689C430E4B089814432C605A680A43E7
:100BB0005A600499002982D17CE7FFF797FC05462B
:100BC000904C074B5868800500D568E7FFF78EFC0E
:100BD000401BA042F5D9009D284609B0F0BDC04693
:100BE0004C10024000700040F0B583B00290002825
:100BF00046D00E4682480068012101910840B0426B
:100C000016D27F4908680125A843304308607D4C0F
:100C1000FFF76CFC07467A4800682840B04207D0CE
:100C2000FFF764FCC01BA042F5D9032003B0F0BD60
:100C3000029800688107814D06D52968F02291430A
:100C4000029A92680A432A60C0071CD16C48006867
:100C500001273840B04225D969490868B84308607F
:100C6000684CFFF743FC054665480068C00719D08B
:100C7000FFF73CFC401BA042F6D9032003B0F0BDB7
:100C8000012003B0F0BD0298426829460C39012AC0
:100C900032D0032A35D0022A39D109688903019854
:100CA00033D538E0029800684107644C07D5072126
:100CB000090222688A430299C9681143216000072A
:100CC00008D50720C0022168814302980069C0004E
:100CD0000843206021680807820F73487A4412791C
:100CE0005200974401617F68380421460839096839
:100CF0000904490F884075E009684907019804D53F
:100D000009E009688901019805D403B0F0BD0968BC
:100D100089050198F9D52968032001908143114381
:100D20002960FFF7E3FB074602984068354C03282B
:100D300011D002281DD0012829D128680C2101409A
:100D4000042900D182E7FFF7D1FBC01BA042F4D9F0
:100D5000019803B0F0BD28680C2101400C2900D196
:100D600074E7FFF7C3FBC01BA042F4D9019803B09E
:100D7000F0BD28680C210140082900D166E7FFF783
:100D8000B5FBC01BA042F4D9019803B0F0BD2868A0
:100D90000007800F00D159E7FFF7A8FBC01BA04256
:100DA000F5D9019803B0F0BD20460C380068C006A4
:100DB00012D53F4816E08A02120F3C4B9A5C09029A
:100DC000890F491C2368DB0309D420460C380068CE
:100DD000C00603D4374802E0364803E034485043A5
:100DE00001F09AFA21680906090F074A515CC840C8
:100DF0001149086005480068FFF78EFD03B0F0BD9B
:100E000000200240881300000E2500080400002086
:100E100009480068094909684905490F084A515CB1
:100E2000C840704704480068044909688904490FAC
:100E3000034A515CC8407047080000200C10024073
:100E40001E25000810B5834AD1680807830F16488D
:100E50007B441B795B009F440108070D01200004BF
:100E600051680904490F884010BD1068C00613D5A9
:100E70000F4810BD8B021B0F0C4CE35C0902890F5D
:100E8000491CD468E40303D41068C00606D409489A
:100E9000584301F041FA10BD064810BD04485843BC
:100EA00001F03AFA10BDC04600127A00262500086B
:100EB00000093D000024F400F0B589B0002856D0A8
:100EC000644EF1680C220A40069201210591090442
:100ED000F76804910F4007900078C00710D006987B
:100EE000082806D006980C2800D0D5E0002F00D1A5
:100EF000D2E03068800303D507984068002851D0BD
:100F000007980078800735D407980078C0064CD43D
:100F100007980078000766D407990878400700D53D
:100F20009AE00878800600D521E10798846A002CB1
:100F30001AD006980C2800D06DE1012C32D0F06850
:100F4000049A0240079BD96A8A422BD10F21890457
:100F500001401A6B914225D1032189050840596B44
:100F60008842059800D059E2002009B0F0BD012068
:100F700009B0F0BD079BD868810604D531682022EE
:100F80001143316090430699042906D006990C2933
:100F900000D0ACE0002F00D0A9E03168490739D576
:100FA000002837D1059809B0F0BD0698002800D177
:100FB000B3E030680799C969002900D107E1012130
:100FC0000A02104330604C02FFF790FA0546306881
:100FD000204200D00EE1FFF789FA401B0228F6D923
:100FE000032009B0F0BD306D07994969002900D18F
:100FF000DCE0012108433065FFF778FA0546306DE3
:10100000800789D4FFF772FA401B0228F7D9032022
:1010100009B0F0BD1F21090272688A4319690902EB
:101020001143716031680922914301433160F168D5
:101030000807820FFA4852007A4492885200974477
:1010400003002001DE01260170680004410F0498AE
:101050008840D4E10010024001221107B06B084023
:10106000029002D1B06B0843B06301910392140265
:10107000F24F3868C00525D4386820433860FFF740
:1010800035FA0546386820421CD1FFF72FFA411B7C
:1010900003206429F6D9C1E10798406805994C04FA
:1010A0000499884209D005210904884200D0C9E08A
:1010B0000598800431680143316030680499084321
:1010C0003060CFE007988068002800D122E1052138
:1010D00009028842039A00D133E1A04200D134E1F1
:1010E000306DA04330659102306D88432FE1316847
:1010F000002800D1DDE00922914301433160FFF770
:10110000F5F905463068400700D5F9E0FFF7EEF93C
:10111000411B03200229F5D980E130688005079B37
:1011200003D5D869002800D13CE707204003716847
:101130008143586A01437160FF21090672688A433E
:10114000196A090689187160400B04998140F0689A
:101150000006000FB64A105CC140B6480160B648B0
:101160000068FFF7D9FB002800D057E1D0E6B0684F
:1011700007998969002900D1ACE001210843B060DA
:10118000706B084370634803AE490A6802430A6003
:10119000FFF7ACF90546B068800700D5C5E6FFF754
:1011A000A5F9411B03200229F5D937E10121884324
:1011B0003065FFF79BF90546306D800700D4ABE63C
:1011C000FFF794F9411B03200229F5D926E10121FB
:1011D0000A02904330604C02FFF788F905463068F8
:1011E000204200D194E6FFF781F9411B0320022938
:1011F000F5D913E10720400371688143079A506ACB
:1012000008437060FF20000671688143106A000681
:10121000401870607CE601273806316881433160F0
:10122000FFF764F90546022C00D0AAE07F0630687B
:10123000384200D1C1E0FFF759F9411B03200229D0
:10124000F5D9EBE03168049A91433160316811407F
:10125000089108990599890432688A433260002808
:1012600000D19CE0FFF742F905463068204200D0EB
:1012700046E6FFF73BF9401B6428F6D9032009B086
:10128000F0BD3068C00600D487E06748B7E08A0246
:10129000120F644B9A5C0902890F491CF368049C85
:1012A000234200D0A8E03068C00600D5A3E05F4824
:1012B000A2E0012081433160FFF718F9054630684C
:1012C000400700D420E6FFF711F9411B0320022953
:1012D000F5D9A3E001218843B060480359490A6861
:1012E00082430A60FFF702F90546B068800700D420
:1012F0001BE6FFF7FBF8411B03200229F5D98DE01F
:101300001F200002716881430798006900020843AA
:101310007060F9E5306DA0433065039A9002316D3D
:10132000814331655402464FFFF7E0F80546306DC2
:1013300020421CD0FFF7DAF8411B0320B942F6D94E
:101340006CE09002316D01433165306D20433065B2
:1013500054023B4FFFF7CAF80546306D204206D1D4
:10136000FFF7C4F8411B0320B942F6D956E00298B2
:101370000028079900D0D4E5B06B019A9043B06380
:10138000CFE57C063068204200D1EDE5FFF7AEF8EE
:10139000411B03200229F5D940E024482FE0FFF744
:1013A000A5F805463068204200D1A9E5FFF79EF870
:1013B000411B03206429F5D930E0FD200004F168C9
:1013C0008143079B2C330DCB084310431843F06037
:1013D0002748401C316801433160FFF787F8044615
:1013E0003068384200D0BFE5FFF780F8011B0320CA
:1013F0000229F5D912E00C48504300F08DFFF16846
:101400000906090F0A4A515CC8400A4908600A489F
:101410000068FFF781FA002800D175E509B0F0BD3A
:1014200000127A002625000800093D000024F4007F
:101430000E25000808000020040000200070004075
:101440008813000020000140401E010E01D0012041
:1014500070470749074A5060074803680B4003215B
:1014600089075918016000209060072111607047BA
:10147000FFFFFF0010E000E020ED00E010B5382293
:10148000825C012A01D1022010BD024638320223BB
:101490005370006843687024A3430C681C4383683E
:1014A00044603B4CA04207DC0124A407A04209D0C1
:1014B0003A4CA04206D00AE0364CA04202D0364C4C
:1014C000A04204D18024A3434968194381600020CD
:1014D00010700121517010BDB0B5002819D004461C
:1014E000054638356878002804D100202870204649
:1014F00000F056F80220687020680168244B98427A
:1015000009DC0122920790420BD0244A904208D075
:1015100018E00120B0BD1F4A904202D01E4A9042FE
:1015200010D170229143A2680A4321463A31984271
:101530000DDC01239B0798420FD0184B98420CD02A
:1015400013460FE00A4621463A319842F1DD114B2D
:10155000984202D0104B984217D103231B029A43A2
:10156000236913438022934362691A430260E2684D
:10157000C26262688262012242610A710A704A7024
:101580008A70CA706A700020B0BD1346EAE7C04690
:10159000FF07014000140140000801400004004022
:1015A00001218A070068904200D070470248026813
:1015B0000A4302607047C04638100240F0B5382236
:1015C000825C012A01D10220F0BD0246383202239A
:1015D0005370504E3346773B0468A0681840A060B3
:1015E0000D6800234F2D1EDC1F2D35DD202D37D03B
:1015F000302D35D0402D00D086E0206A256A0126A6
:10160000B5432562A569F026B543CE6836012E4361
:10161000A6610A25A843496801432162A0684721C1
:101620000143302069E06F2D26DD01204703BD42D4
:1016300040D00003854218461AD0702D64D1A068AE
:1016400030404D688E68C9682E430902314301431A
:10165000A160A068772139E0002D01D0102D53D171
:10166000A06870218843054307202843A0601846DE
:10167000137001215170F0BD502D29D0602D43D140
:101680001020C043256A054025620F252D03A66959
:10169000AE43CD682D033543266AA561A025AE4330
:1016A0004968090131432162A16867250D4305405E
:1016B000A56024E0A56835404E688F68C968374347
:1016C000090239432943A1608003A168014315E061
:1016D000206A256A0126B5432562A569F026B5432F
:1016E000CE6836012E43A6610A25A8434968014306
:1016F0002162A0685721014320208143A160184640
:10170000137001215170F0BD01201370012151703F
:10171000F0BDC046FF00FFFFB0B500282FD0044643
:10172000C06F002805D1782000212154204600F008
:1017300029F82420E067206801680125A943016099
:10174000204600F0E3FA012817D0606A002802D092
:10175000204600F010FA0920C00221684A6882433E
:101760004A6088682A229043886008680122024300
:101770000A60204600F068FA05462846B0BD012000
:10178000B0BD000080B586B000681149884201D024
:1017900006B080BD0120C1040E4AD3680B43D3605C
:1017A0001168014311601168014000910620059005
:1017B0000320049000210391022102910190052051
:1017C0000007009901A9FEF7C7FD06B080BDC0461D
:1017D000004C00402C100240FEE70000F0B585B040
:1017E0000E4604464030049020688169C90606D43C
:1017F00000210F4601258269D30545D448E0102118
:10180000C1618169890637D4711C32D01546012027
:10181000002E6CD186030390C7030297FEF766FE85
:10182000206842680499897883693B4209D0324034
:1018300007D1202905D0416831434160FEF756FEAB
:10184000054620688169890605D4FEF74FFE401BD6
:101850001A28F6D377E081698906029FDED50BE06E
:101860008169890608D48169890605D48169890658
:1018700002D481698906F3D52021C16101270421A1
:1018800001258269D30503D52B02C36129432F4665
:101890006B02560506D41A420AD1002F0BD1002044
:1018A00005B0F0BDAD02C561082529431A4202D03A
:1018B000C361022211438269920701D5002282622C
:1018C0008269D20703D1826901231343836142688D
:1018D000214B13404360606C0843606420200499EE
:1018E0004870002008708870012005B0F0BD8103A9
:1018F00002910390C0030190019F03E02068816979
:101900008906B9D4FEF7F2FD401BB042F6D9206833
:1019100042680499897883693B420BD0029B1A4044
:1019200008D1202906D04168029A11434160FEF790
:10193000DDFD0546206880698006DFD4FEF7D6FD10
:10194000401B1A28F6D3206881692421039F0125B2
:101950008269D30598D49BE700E800FEF0B583B018
:101960001C4615460E460746036899693140891B97
:101970004A424A410020AA4234D1611C2BD0002C9B
:1019800032D10446FEF7B2FD386881693140891BC7
:101990004A424A41AA4240D080693040801B4142BD
:1019A0004141A942EED0204603B0F0BD99693140D3
:1019B000891B4A424A41AA4214D199693140891B84
:1019C0004A424A41AA420DD199693140891B4A4293
:1019D0004A41AA4206D199693140891B4A424A418B
:1019E000AA42E3D003B0F0BD01900898029006E04F
:1019F00080693040801B41424141A9421AD1FEF723
:101A000075FD0299411A3868A142F1D981693140C6
:101A1000891B4A424A41AA42EAD138464030796C91
:101A200020221143796442700021017081700120ED
:101A300003B0F0BD019803B0F0BDF0B581B005462C
:101A4000006880690024800622D416460F460029CB
:101A500003D129E0806980061AD4284639463246E7
:101A6000FFF7BCFE002827D1FEF740FD811B286848
:101A7000B942EFD981698906ECD428464030696CB7
:101A80002022114369644270002101708170012499
:101A9000204601B0F0BDFEF729FD2868816989065E
:101AA000EBD580698006F3D40024284621463246CF
:101AB000FFF794FE0028EED00124204601B0F0BDCF
:101AC000F0B581B00546006880690024800716D40F
:101AD00016460F46481C19D0002F26D10024284650
:101AE00021463246FFF77AFE002838D1FEF7FEFC89
:101AF00028688169890728D580698007EED5204646
:101B000001B0F0BD286880698007F8D40024E14363
:101B100028463246FFF762FE0028F3D00124204613
:101B200001B0F0BD80698007E9D4284639463246C5
:101B3000FFF754FE002812D1FEF7D8FC811B28685D
:101B4000B942EFD981698907ECD428464030696CE5
:101B500020221143696442700021017081700124C8
:101B6000204601B0F0BDFEE77047704780B5FEF734
:101B7000B5FE80BD7047B0B5416ACA070CD18A076F
:101B800014D44A071CD40A0724D4CA062CD48A06C3
:101B900034D44A063CD44CE00122520403685C6809
:101BA0009443826A22435A608A07EAD501221204CA
:101BB00003685C689443C26A22435A604A07E2D5CC
:101BC0000122920403685C689443026B22435A60CA
:101BD0000A07DAD50122D20303685C689443426B9A
:101BE00022435A60CA06D2D50122120303689C68B8
:101BF0009443826B22439A608A06CAD5012252031B
:101C000003689C689443C26B22439A604A0610D5CD
:101C100001221305026854689C43056C2C435460F0
:101C20009D4206D103235B0554689C43436C2343C8
:101C30005360090607D50121C904026853688B4324
:101C4000806C18435060B0BDF0B583B004460646C2
:101C500078360027F760FEF749FC034620680168E4
:101C600009071FD528480090012002904105002255
:101C700020461D4600F064F9002811D0EFF31080D3
:101C8000029981F3108821680A6880239A430A60C8
:101C900080F310882020E0670320377003B0F0BD88
:101CA00020682B460068400725D51748009001257D
:101CB000A9050022204600F043F900281BD0EFF3CD
:101CC000108085F3108809214901226813688B432D
:101CD000136080F31088EFF3108085F3108821687B
:101CE0008A68AA438A6080F310882020B0600320AD
:101CF000377003B0F0BD2020E067B06027666766EC
:101D00003846377003B0F0BDFFFFFF01F0B581B07A
:101D1000044601680868784A0240A06823690343C2
:101D2000606918431043E2691043086003263003DA
:101D30004B688343E06818434860A5696F4B99423C
:101D400002D0206A284300E028460B252D028F6828
:101D5000AF4307438F606A48814214DD002769481A
:101D600081421FD0684881421CD06848814243D1DB
:101D70006848C06C8007000F68A52F580125E8034C
:101D8000994213D13DE06248814205D0994233D156
:101D90006048C06C000A01E05E48C06C0C2505403C
:101DA0005D4847590125E80399422AD0824211D162
:101DB000082F00D999E0C0467F443F797F00BF4497
:101DC000043D47944D9494947600FFF721F8002841
:101DD00048D06CE0082F00D987E0C0467F443F79A7
:101DE0007F00BF4404304182478282827500FFF742
:101DF0000FF800286CD141E010270125E803994233
:101E0000D4D1082F71D8C0467F443F797F00BF44AA
:101E1000046C096C0F6C6C6C3800FEF7F9FF00283D
:101E20002FD109E03B480068C00629D5404828E08A
:101E3000FFF708F8002824D1002556E0FEF7F2FF4E
:101E4000002834D10EE0FEF7EDFF002840D115E068
:101E500030480068C00629D5354828E0FEF7F2FF73
:101E6000002824D1002540E02A480068C0062ED56D
:101E70002F482DE0FEF7E6FF002829D1002534E0A9
:101E80002A4862685643B0422FD3110388422CD8A7
:101E9000010E56080002002380195941FEF77EF911
:101EA00025494118254A91421FD21BE01F48400096
:101EB00061684A08101800F02FFA0246103A1D49CE
:101EC0008A4212D201400007400F08430AE0174837
:101ED00061684A08101800F01FFA01461039154AC7
:101EE000914202D22168C86000250020A066E06609
:101EF000284601B0F0BDC046F369FFEF004800403E
:101F0000FF4B0040004C00400050004000380140B2
:101F1000004400400010024030250008010000008D
:101F20000400000002000000080000000024F4008B
:101F300000093D00F0FF000000FDFFFF00FD0F0065
:101F4000F0B587B015460F460668F1693940C91BE0
:101F50004A424A410021AA4225D106930C9C002CFA
:101F600024D00B46611C26D1F1693940C91B4A4275
:101F70004A41AA4214D1F1693940C91B4A424A4137
:101F8000AA420DD1F1693940C91B4A424A41AA42CD
:101F900006D1F1693940C91B4A424A41AA42E3D0FD
:101FA000184607B0F0BD084607B0F0BDFEF79EFA30
:101FB000032007B0F0BD029301467831039101215F
:101FC0000191C9020491059006E0C9693940CA1B14
:101FD00051425141A9424BD1FEF788FA0699411A64
:101FE0000323A142DCD8059801680A685207ECD5A2
:101FF000CA6912073FD4CA692646049C2242344665
:10200000E3D01F4604980862EFF31082012181F3A8
:10201000108809235B010598046825689D432560A5
:1020200082F31088EFF3108281F31088059803681B
:102030009C688C439C60059882F31088026E012A8C
:102040000BD1EFF3108281F3108801680B68102424
:10205000A3430B60059882F310882021039B9960AD
:102060000022026682661A70D960384607B0F0BD59
:10207000029807B0F0BD08250D62EFF310810198BA
:1020800080F3108809225201059B1B681C68944349
:102090001C6081F31088EFF3108180F31088059A9B
:1020A0001268936883439360059B81F31088196ECF
:1020B00001290CD1EFF31081012282F310881A68F4
:1020C00013681024A3431360059B81F3108820211B
:1020D000039A91600021196699661170D56007B066
:1020E000F0BD0000A2B0FEF703FC14AC201D2425B7
:1020F0002946FEF7F9F804A8001D2946FEF7F4F872
:102100000327F8027A490A68824301201790C30224
:10211000D2180A60002520951F9502261E961021D0
:1021200018911496800521902046FEF7C5FE0028E0
:1021300003D0EFF3108072B6FEE713951295119558
:1021400010970F200F900FA801242146FEF74CFD99
:10215000002803D0EFF3108072B6FEE70B950A95C6
:102160002120C000049004A8FEF720FC002803D022
:10217000EFF3108072B6FEE75E4801680422114357
:1021800001600168114014911499016821430160B4
:10219000016821401491149901683143016001687C
:1021A00055480562314014911499544E544942C027
:1021B000056044608560C560056145610838FEF7CB
:1021C000DDF9002803D0EFF3108072B6FEE74A482D
:1021D0000021FEF791F9002803D0EFF3108072B6CA
:1021E000FEE7454800252946FEF7A7F9002803D059
:1021F000EFF3108072B6FEE74248434942C00560E3
:1022000044608560C5600561456185610838FEF7F9
:10221000B5F9002803D0EFF3108072B6FEE7394815
:102220000021FEF769F9002803D0EFF3108072B6A1
:10223000FEE7344800252946FEF77FF9002803D041
:10224000EFF3108072B6FEE730480C21304A056289
:102250004562E1235B022CC0056045608160C5607A
:1022600005610C38FFF758FA002803D0EFF310800F
:1022700072B6FEE7274E4B20C0007D218901A207E0
:10228000B260F16035617061B561F56117951695C1
:10229000159505950495354608352846FFF71CF930
:1022A000002803D0EFF3108072B6FEE720031490ED
:1022B00014A92846FFF782F9002803D0EFF3108015
:1022C00072B6FEE704A92846FFF7D8F8002803D025
:1022D000EFF3108072B6FEE764200096019402903E
:1022E0000548A62100222346FEF79CF9FEE7C046DA
:1022F000007000402C100240B800002082665000A0
:10230000005400400C0100200078004060010020D3
:10231000004C00407000002043088B421AD300227A
:1023200003098B4279D3030A8B425ED3030B8B42A2
:1023300042D3030C8B4227D30902FF2212BA030CAB
:102340008B4202D31212090203D0030B8B4233D308
:102350001AE0D3E0411A8041401C704703460B430A
:1023600071D443088B42F5D3002203098B4254D326
:10237000030A8B4239D3030B8B421DD3030C8B42D0
:1023800002D394466EE0090AC30B8B4201D3CB0300
:10239000C01A5241830B8B4201D38B03C01A5241A6
:1023A000430B8B4201D34B03C01A5241030B8B42A8
:1023B00001D30B03C01A5241C30A8B4201D3CB0293
:1023C000C01A5241830A8B4201D38B02C01A524178
:1023D000430A8B4201D34B02C01A5241030A8B427B
:1023E00001D30B02C01A5241CDD2C3098B4201D393
:1023F000CB01C01A524183098B4201D38B01C01A11
:10240000524143098B4201D34B01C01A5241030987
:102410008B4201D30B01C01A5241C3088B4201D336
:10242000CB00C01A524183088B4201D38B00C01AE3
:10243000524143088B4201D34B00C01A5241411A0A
:10244000524110007047CA0F00D04942031000D318
:102450004042534000229C4603098B422DD3030A7D
:102460008B4212D38901FC2212BA030A8B420CD38D
:10247000890192118B4208D3890192118B4204D3B6
:10248000890137D0921100E08909C3098B4201D339
:10249000CB01C01A524183098B4201D38B01C01A70
:1024A000524143098B4201D34B01C01A52410309E7
:1024B0008B4201D30B01C01A5241C3088B4201D396
:1024C000CB00C01A524183088B4201D38B00C01A43
:1024D0005241D9D243088B4201D34B00C01A52411A
:1024E000411A00D201465241104663465B1000D3A8
:1024F0004042704763465B1000D3404201B5002163
:10250000004201D0C9430846C046C04602BD000093
:102510000000000000000102030406070809000093
:10252000000001020304030406080C101820300008
:10253000000000000400000002000000080000008D
:1025400060250008000000201000000004010008C1
:102550007025000810000020E0070000200100089E
:102560000100000004000000000020000000000046
:04000005080000C12E
:00000001FF
