:020000040800F2
:100000004008002065010008F53900081533000894
:1000100000000000000000000000000000000000E0
:10002000000000000000000000000000D93B0008B4
:100030000000000000000000F93900082D3C000815
:1000400077010008770100087701000877010008B0
:1000500077010008770100087701000877010008A0
:100060007701000877010008770100087701000890
:100070007701000877010008770100087701000880
:1000800077010008770100087701000800000000F0
:100090007701000877010008770100087701000860
:1000A0007701000877010008770100087701000850
:1000B0007701000877010008770100087701000840
:1000C00000F002F800F03EF80CA030C80838241800
:1000D0002D18671EA246AB4654465D46AC4201D180
:1000E00000F030F87E460F3EB6460FCC0126334274
:1000F00000D0FB1A3343A246AB46184730550000E8
:1001000050550000103A02D378C878C1FAD8520787
:1001100001D330C830C101D504680C6070470000BD
:100120000023002400250026103A01D378C1FBD813
:10013000520700D330C100D50B6070471FB51FBDFB
:1001400010B510BD01F0F0F81146FFF7F7FF04F00D
:1001500077FB01F008F903B4FFF7F2FF03BC01F0ED
:100160005BF900000748804707480047FEE7FEE7C5
:10017000FEE7FEE7FEE7FEE704480549054A064BB1
:1001800070470000E53C0008C10000084002002064
:100190004008002040040020400400204343514315
:1001A00030B55C18010C130C0D4692B25D4380B261
:1001B00051432C19054655430A0C09044D19624157
:1001C0005843010C00044019514130BDFEB50446AE
:1001D00010460D46184373D0A6468C460020A41A3C
:1001E00001469D4167D36646002701243D46B61A65
:1001F0009D4102D313463A462124654676462F0494
:10020000360C3E432D0CB61A9D4104D3150C1B042D
:100210002B4312041034654676462F06360A3E43B9
:100220002D0AB61A9D4104D3150E1B022B43120250
:100230000834654676462F0736093E432D09B61A1F
:100240009D4104D3150F1B012B431201241D65464C
:100250007646AF07B6083E43AD08B61A9D4104D3B3
:10026000950F9B002B439200A41C65467646EF0732
:1002700076083E436D08B61A9D411AD392185B4129
:10028000641C16E00018764665464941B71A9D4140
:100290000191009009D36046B11A98418E46844678
:1002A000009801990025401C6941DD0752082A4346
:1002B0005B08641EE6D57246634603B0F0BDFFE7F7
:1002C0002046284307D00020C0430146C046C04610
:1002D00022462B46F1E700200146F7E701E004C083
:1002E000091F0429FBD28B0701D50280801CC90796
:1002F00000D00270704700290BD0C30702D00270F3
:10030000401C491E022904D3830702D50280801CA9
:10031000891EE3E70022EEE70022DFE7002203095F
:100320008B422CD3030A8B4211D300239C464EE010
:1003300003460B433CD4002243088B4231D30309CC
:100340008B421CD3030A8B4201D394463FE0C3097E
:100350008B4201D3CB01C01A524183098B4201D396
:100360008B01C01A524143098B4201D34B01C01A81
:10037000524103098B4201D30B01C01A5241C308F9
:100380008B4201D3CB00C01A524183088B4201D368
:100390008B00C01A524143088B4201D34B00C01A54
:1003A0005241411A00D201465241104670475DE069
:1003B000CA0F00D04942031000D3404253409C462C
:1003C000002203098B422DD3030A8B4212D38901E9
:1003D000FC2212BA030A8B420CD3890192118B4280
:1003E00008D3890192118B4204D389013AD092112A
:1003F00000E08909C3098B4201D3CB01C01A5241E5
:1004000083098B4201D38B01C01A524143098B42AD
:1004100001D34B01C01A524103098B4201D30B0196
:10042000C01A5241C3088B4201D3CB00C01A5241BB
:1004300083088B4201D38B00C01A5241D9D24308A2
:100440008B4201D34B00C01A5241411A00D20146DF
:100450005241104663465B1001D34042002B00D549
:100460004942704763465B1000D3404201B50549DD
:10047000002802DC491C084000E00846C046C0468F
:1004800002BD00BFFFFFFF7F70477047704700004D
:100490000246C80FC00781434B0030B54B405B009C
:1004A0009B0D20D01923DB06C91801231B05994297
:1004B00020DB0324A40704251346AB400BD3002BF9
:1004C00004D1EB0613409B00E34204D401246407EB
:1004D000002312195941FF231B0599420BD2C90071
:1004E0000143500F09E0CB0204D501430803024346
:1004F00005D0054830BDFF21C905084330BD084679
:1005000007210905884330BD0000C07FF0B50C46C7
:10051000871A9C410D46861A9D4103D2C01BA141FA
:10052000D21963410D0D1F0DC94EEC1BAE435CD0BB
:100530007F057F0D0026002F51D02D05AC46A94325
:10054000DD020123ED0A1B051D4320231B1B24D4C0
:100550001746E740381871412F46E740CC199D40B7
:100560002818314661410C0D27D161449A4013D5BA
:100570000023401C594152000ED140084000012286
:100580004B005205D34207D305204007C14201D595
:10059000B04900E0B0493046F0BD6B00002A00D001
:1005A00001229A181F23203C1B1B01D5002302E0C7
:1005B000E540281871410C0DD7D0012424050919F4
:1005C000C407CD0740084908E40F28436144002CC4
:1005D000D5D00024401C61419A40D0D1CDE76A05B6
:1005E000520DD9D1C90FC907D5E79C4D4E0000283F
:1005F00001D0012400E0002434195F00002A01D05A
:10060000012600E00026BE19954FAC420CD8AE4240
:100610000AD8B44206D001256D05EC42BCD0104684
:100620001946F0BD9942FCD000203946F0BDF0B526
:100630001FB40C460F46811A9F412546861A9D41DC
:1006400006D20125ED076F40401ABC4152187B418C
:10065000210D1E0D8D1BAC467D4D8D437ED0750545
:100660006D0D7CD00D05AE46AC431B031B0B794DC5
:1006700052429D41202366469B1B14D31746F740E8
:10068000381800260090744160462F460741E4194F
:1006900000989D402818664116D4714671189A40FA
:1006A00025D5012320E093182A466A415200002BE9
:1006B00000D0521C1E23203E9B1B002B61DD3541C8
:1006C000EE1728186641E8D5001876415B1C9A4061
:1006D00000D3401C4B05F3181524E34010D3002B26
:1006E00052D071467118D30FC01802D3491C05B0FF
:1006F000F0BD0123DB079A42F9D140084000F6E73C
:1007000001225205B21801D1002853D00123CC0A8E
:10071000DB029943891E002A08D1020C03D0020C87
:100720000004103902E00246002020390023550B56
:1007300005D112020823550B01D152010D23550C8E
:1007400001D112011B1DD50C01D192009B1C150D6E
:1007500001D152005B1C2025EE1A01E02CE022E0C2
:100760000546F54015439840CA1AE1076918130574
:10077000C918002ABBDA032040070818C10FC907AF
:100780000FE071466118B2E7F107400808437110A5
:1007900071444A000CD001235B059A42A7D2C90FCD
:1007A000C9070020A3E74905490D26D1002001E033
:1007B0000028F4D100219AE7284D6600002801D0D6
:1007C000012100E0002171185F00002A01D00126FC
:1007D00000E00026BE19224FA94210D8AE420ED822
:1007E000B14208D001256D05E94206D01946A8029C
:1007F000414010467BE79C4201D0214677E700202C
:10080000394674E710B50C465C4005D50124E40771
:100810006340FFF70CFF10BDFFF778FE10BD30B44A
:100820000C465C4004D50124E407634030BC6DE60F
:1008300030BCFCE670B50124E40761400D465D4024
:1008400002D4FFF763FE70BD6340FFF7F0FE70BD9A
:10085000FF0700000000F0FF0000F07F0000E0FF55
:100860000000F87F1F22030C02D10F22000402D0E7
:10087000030E03D004E00020014670470002083A4E
:10088000030F01D10001121F830F01D18000921EBE
:10089000002801DB4000521E120551184205C0120B
:1008A000411810467047C10FC90700D040420122CD
:1008B00092071143D6E701218907D3E7F0B58B4CA6
:1008C0000F09254689B0BD437BD01D092646AE439E
:1008D000FAD00E465E402740F60F3E43254071D0C9
:1008E00024012142FBD0FF24AD19A4042D1B039544
:1008F00001252D05DB02DB0AC9022B43C90A294366
:100900001E010901040F130F050121431701880B74
:10091000820391432D098C46A90B1E438A039543FC
:10092000B30B9A0396433F09BA0B9403A74302966D
:100930002E467E430497B6464E19D7190C460196AB
:10094000544305977E43371B7646BF1B3601B64698
:10095000BE0B361900967646BC043719009C01D3AD
:10096000641C00946400002F01D001263443029ED1
:10097000049F754366467E430496760034196E00E4
:1009800034190094029C019E1C196643751BAE46E7
:10099000069465464519059C05956C435943754673
:1009A0000891691A0191049E01465143A41B0491C8
:1009B000611A009C0791E10605D0610901221143EB
:1009C00002E072E06EE06109089D00272C0A2D0606
:1009D0006918049D7C412A0A2D066918019D62410F
:1009E000AC0DAD026D185441079A910D9202551944
:1009F0006141029A644658435443069B059A5A4300
:100A0000121A131B9A0E9B015B187A41010B000509
:100A1000C3185141220A200644195A419A4200D271
:100A2000491C01204002814203D315230226F643CC
:100A300002E014230326F6432020C51AA9401746D6
:100A4000AF40DA400A4320460399D840091473188E
:100A500019055118039A3843D2075140AC4009D0C8
:100A60000122944006D30022401C5141002C01D1A8
:100A7000400840001E4A934212D301220398920676
:100A8000904207DB0520400709181A480143C012AD
:100A9000414004E0032040070818C10FC9070020A7
:100AA00009B0F0BD0020F107FAE705180C464C41EB
:100AB00011486D42A04115D394181A465A410E4868
:100AC000644290410ED301204A004005824209D37E
:100AD0005A00824206D35940C90F084AC90700206C
:100AE0001143DDE700200649DAE700000000FF07B8
:100AF000FE070000FFFFFF7F0000E0FF0000F07F27
:100B00000000F87F0121C9050123411842001B069E
:100B1000D3185B0E0AD0C1100722D20689184007ED
:100B20005242D14201D5520089187047090208D5B6
:100B30000146002A03D0C10FC907002070471046A4
:100B40007047420202D00020024970470721090580
:100B50000143F4E70000F87FF0B5FF252D04C60936
:100B6000C209FF2704462E400137CB093E434840C7
:100B70002A402B400746002A6BD0002B69D0AA429E
:100B800067D0AB4265D0002800DA32460125ED057A
:100B900029432C4309022002090AD21A4B0C7F2454
:100BA000E31A434C000A7C44E35C7D2424041219BC
:100BB00014145B00A218884201D3521C00E04000CC
:100BC00049420C465C4324115C43DB016415E31885
:100BD000040A5C43C502200D0C4644436419250AEF
:100BE0005D432303EC0C0D46654300030019EB182D
:100BF0004C42A34201D35B18401CD4052018002BA3
:100C000007D05B00C91804D3401C002901D140085B
:100C100040003F2189048A4209D3002A08DC1106DA
:100C2000090F04D0032149074018C00FC007F0BDC9
:100C300001224100120689187F2252069142F6D203
:100C400005214907C84201D59010F0BDFF20C0051D
:100C5000F0BD002F00DA32461648AA4207D2AB4256
:100C600005D21902090E17D0F80FC007F0BDFF25F5
:100C700063002D06AB42F9D84900A942F6D8AB4231
:100C800001D1A942F2D0A94201D1002101E06100C5
:100C90004908D0050843F0BD1102090EFBD0FF2022
:100CA0000243D005F0BD0A460146104654E7000055
:100CB0000A4900000000C07F10B500F0DDFA0068AE
:100CC00010BD10B5044600F0D7FA046010BD000056
:100CD000F0B5F94D0C091E092C402E402F468BB063
:100CE000A7437DD0B543FCD0002E7AD0002CFCD099
:100CF0000D465D40ED0F2543AC1BFF25AD04641987
:100D00000894C502440DC9022143500DDC0204437E
:100D10000120C00701430443D2020191200C110CB1
:100D200000958C46010423468B430A9161460904D1
:100D3000E24D8A430991010A7D44491980390978B5
:100D400005464D4301266D18F605751B6943C90C10
:100D5000640B891C4C436418B5012C1B250C2E0414
:100D6000B4434C434D43210C691889090591009DFA
:100D7000E90701D00121C90704912C4601996708B0
:100D8000CD072F434C08059DE10B4D432D0C294603
:100D90006646754302950D4645432E46029D7D1BD2
:100DA000B44100950D465D4301942C0C2F040D4673
:100DB0005543AE462D0C3D43029503947546049C65
:100DC0002D04641B049406D2029C039D641C00261F
:100DD00075410395029401AC70CC009F7D1B01E02E
:100DE0003EE162E1B441090400950791019405993F
:100DF000A4086143090C0C464443650BE7040C4608
:100E000066467443A646640B3C43039502947446BD
:100E1000049DE4042C1B049406D2029C039D641CD4
:100E2000002675410395029401AC70CC009F7D1B98
:100E3000B44101940C465C430095650FE7000C46F5
:100E40005443A646640F3C43039502947446049DA4
:100E5000E4002C1B049406D2029C039D641C002613
:100E600075410395029401AC70CC009F7D1BB44189
:100E7000AE09AF06049DC900AD092F43049DA40629
:100E8000AD060495079D344369180791059DE10B54
:100E90004D432D0C29466646754302950D46454344
:100EA0002E46029D7D1BB44100950D465D43019485
:100EB0002C0C2F040D465543AE462D0C3D43029598
:100EC00003947546049C2D04641B049406D2029C72
:100ED000039D641C002675410395029401AC70CCFF
:100EE000009F7D1BB44101948C050694079C890AE0
:100EF000611800950791019C0599A4086143090CAC
:100F00000D464543680BEF040D46644665436C0B84
:100F10003C43049FED047D1BAC4602D20025641CBB
:100F20006841009E019D371B854108465843019545
:100F30000C46460FC5005443600F28436546E40045
:100F40002C1B02D20025401C6E41019D3F1AB54169
:100F50002846BD09800628438446A009BF064E02E4
:100F60000699A40676180743079D002068410A9950
:100F7000079019430020099B00906046FF19134316
:100F80004041E20F64003A43A4460446D71A8C411C
:100F9000A04203D90120009020463A46C70F94187A
:100FA00040416246D20F2243644664000494009C90
:100FB000BE466400D71AA446044602978C41774681
:100FC000002F01D1A04204D96046401C8446029AF9
:100FD0002046C40FA64694184041049A0546D20FF5
:100FE000224364466400D31A8D417146002901D121
:100FF000A84202D928461A46641C10430122002840
:1010000000D0164361020020079B891904465C4109
:101010000223002C02DB491813466441089DCE0AC6
:101020002D145D194B056705E10A2C050D1908996A
:101030003E43C9076940002B08D0934006D30022E5
:10104000761C5141002B01D1760876001C4A002DF8
:1010500043DB154241D0AA433FD030460BB0F0BD30
:1010600006180D464D41174C7642AC411AD39518DF
:101070001C465C41134A6D42A24113D30122520522
:101080004C00D4420AD15C00D4420BD04B4002D574
:1010900092021143E2E749004908DFE75940C90FCE
:1010A000C90718E000200849D8E7054801420DD1DA
:1010B0000342F7D0F2E700000000FF0744480000B9
:1010C0000000F07F0000E0FF0000F87F1148594069
:1010D0000143C01241400020C0E70123089A9B064B
:1010E0009A4205DC032252078918C90FC907B5E7E0
:1010F000052252078918074A1143D2125140ADE721
:1011000070B515461C4602460B4628462146FFF799
:10111000DFFD70BDFFFFFF7F70B505464800440D41
:10112000124B0020002C0AD0634008D09A4206DA05
:101130006642B24203DD12054019514170BD002CD8
:1011400008D0002B09D0C90FC907002AF6DB084ACE
:10115000114370BDC90FC90770BD28460A0310436B
:1011600002D00020034970BD284670BDFF07000073
:101170000000F07F0000F87FF0B53D4B02460C46C2
:101180001C400020002C63D03A4D8B4366D00029D0
:101190006BDB0B0D1D05A94301252D0529430124FA
:1011A000FD33E34001D392184941FF3381339C461C
:1011B0008B02940D0121234389074C4292020027A0
:1011C0001B198C105D1A04D42D1B02D42B4665000C
:1011D000491992185B416408F4D15C1A08D40125BE
:1011E000ED07EE175519744102D42A462346491CCF
:1011F00094185B41012292071D46E61B8D4106D4DF
:10120000B61A854103D42B46550034467F1924195C
:101210005B415208802AEFD1234300D00223384695
:101220000A22D04001D3012213438A0510436246AB
:10123000890A12058918002B09D00122D34002D354
:101240000022401C5141002B01D140084000F0BD5C
:101250000B03134307D0C90FC907F0BD08031043A0
:1012600003D1002901DB1046F0BD00202946F0BD66
:101270000000F07F0000F87F004870471000002059
:10128000F8B5264C4E00069DA6420AD8A64201D1CA
:10129000002806D15E00A64203D8A6420AD1002A41
:1012A00008D00D242404254233D02946002000F024
:1012B00062F8F8BD0C461C4311D4994207D0C81AF5
:1012C00002D3EFF30080F8BDEFF30080F8BD801A81
:1012D00002D3EFF30080F8BDEFF30080F8BD0924DE
:1012E0002407E5008B4207D0581A02D3EFF30080A1
:1012F00006E0EFF3008007E0101A03D3EFF300805D
:10130000A04303E0EFF30080A043284380F300886C
:10131000F8BD009500F046F8F8BD00000000E0FFC1
:1013200000487047100000207546FFF7F9FFAE46F1
:10133000050069465346C008C000854618B020B570
:10134000FEF71AFF60BCB64600260027C0C5C0C520
:10135000C0C5C0C5C0C5C0C5C0C5C0C5403D4908A1
:1013600049008D46704710B50446C046C046204629
:10137000FEF7F1FE10BDC80212D54803400F002849
:1013800004D0C803C043012188407047EFF30080B8
:101390000001000903210907084380F30088704712
:1013A0000020704710B500200249029A00F004F8AE
:1013B00010BD00000000F87F10B50C461107090FA2
:1013C000092904D00A290AD008290CD104E01146C1
:1013D0000820FFF7D0FF06E0510606D501E05106D0
:1013E00001D50120C007214610BDD10607D5010156
:1013F0000909CC084907000E0006044309E0410F23
:1014000020024907000A0143200E00061D22D14197
:1014100001430846E7E7000001491820ABBEFEE79C
:1014200026000200704781B0EFF3108072B6009082
:10143000FFE7FEE78CB00B900A910020099008901E
:101440000790FFE70A9800680999C840002800D172
:1014500062E10A980068099A0121914008400890C9
:101460000898002800D153E10A98406803210840F9
:10147000012807D0FFE70A984068032108400228A6
:101480002CD1FFE70B988068079009984000032152
:1014900081400798884307900A98C16809984000DE
:1014A000814007980843079007980B9988600B982C
:1014B0004068079009980121814007988843079068
:1014C0000A9840681021084001090998814007984E
:1014D0000843079007980B994860FFE70A9840680F
:1014E00003210840032816D0FFE70B98C068079037
:1014F00009984000032181400798884307900A9883
:101500008168099840008140079808430790079830
:101510000B99C860FFE70A98406803210840022839
:1015200020D1FFE70B980999C90889004018006A83
:10153000079009984007C00E0F2181400798884303
:1015400007900A98016909984007C00E81400798E2
:101550000843079007980B99099AD20892008918B6
:101560000862FFE70B980068079009984100032084
:1015700002468A400799914307910A9949680140B8
:1015800009984000814007980843079007980B99F5
:1015900008600A9880798007002800D1B7E05F4989
:1015A00008680122104308600998032188435C49B8
:1015B0004058079009988007000F0F218140079835
:1015C000884307900B9805210907884203D1FFE75C
:1015D0000020069038E00B985249884203D1FFE77B
:1015E000012005902DE00B984F49884203D1FFE779
:1015F0000220049022E00B984C49884203D1FFE777
:101600000320039017E00B984949884203D1FFE774
:10161000042002900CE00B99464A05200623009313
:101620009142019001D00098019001980290FFE74B
:1016300002980390FFE703980490FFE70498059051
:10164000FFE705980690FFE7069909988007000FC5
:10165000814007980843079007980999032291430E
:101660002F4A8850344800680790089907988843A3
:1016700007900A988079C006002805D5FFE70899E9
:10168000079808430790FFE707982B4908602B4805
:101690000068079008990798884307900A9880790E
:1016A0008006002805D5FFE70899079808430790AA
:1016B000FFE70798214908602148006807900899CA
:1016C0000798884307900A9880798007002805D5F5
:1016D000FFE70899079808430790FFE7079818491C
:1016E0000860184800680790089907988843079091
:1016F0000A988079C007002805D0FFE70899079865
:1017000008430790FFE707980E490860FFE7FFE7E7
:101710000998401C099095E60CB0704734100240BF
:10172000080001400004005000080050000C005068
:1017300000100050001C0050080401400C0401403F
:101740000404014000040140014800687047C0469D
:101750002402002010B583B001900091019841212E
:10176000405C202839D1FFE7FFE701984021405C29
:10177000012804D1FFE702A90220087031E0019995
:10178000402201208854FFE7FFE7019941222420ED
:1017900088540198016808680123984308600198FB
:1017A000016808681C03A0430860009C0198016858
:1017B00008682043086001980168086818430860B9
:1017C000019920208854FFE7019940220020885485
:1017D000FFE702A90020087003E002A902200870B8
:1017E000FFE702A8007803B010BD84B00290019119
:1017F00002984121405C20283FD1FFE7FFE7029893
:101800004021405C012804D1FFE703A902200870B1
:1018100037E00299402201208854FFE7FFE7029950
:1018200041222420885402980168086801239843C3
:101830000860029800680068009000980F21090273
:101840008843009001980102009808430090009896
:1018500002990968086002980168086818430860DE
:10186000029920208854FFE70299402200208854E2
:10187000FFE703A90020087003E003A90220087015
:10188000FFE703A8007804B07047000080B582B07D
:1018900000900098002804D1FFE701A901200870FA
:1018A00074E000984121405C002808D1FFE70099CE
:1018B000402200208854009800F0A0FAFFE7009929
:1018C000412224208854009801680868012290432E
:1018D0000860009948680F231B069843096808614F
:1018E000009801688868D203904388600098C068B7
:1018F000012808D1FFE7009988680122D20310432C
:101900000968886007E000998868212292021043E4
:1019100009688860FFE70098C068022806D1FFE7E1
:10192000009801680120C0024860FFE70098016844
:101930004868184A1043486000980168C868012246
:10194000D3039843C860009908694B6918438B69B1
:101950001B0218430968C8600099C8690B6A1843DC
:1019600009680860009801680868104308600099D9
:1019700000204864009A41232021D1540099086333
:1019800000994222885401A90870FFE701A8007855
:1019900002B080BD0080000210B588B00A9C06909D
:1019A00005A80180049203A8038006984121405CA9
:1019B000202800D0E4E0FFE706984021405C0128A1
:1019C00004D1FFE707A902200870DDE00699402254
:1019D00001208854FFE7FFE7FFF7B6FE0290069864
:1019E000029900910122D103192301F039FE002848
:1019F00004D0FFE707A901200870C5E0069941223D
:101A000021208854069942221020885406990020EB
:101A100048640499069A51620399069A5185069979
:101A200048630698408D000A00280FD0FFE706990A
:101A3000FF200885069805A909882822825C544B56
:101A4000009301231B0601F0E1FD0FE00698408D95
:101A500006990885069805A909882822825C4C4BBE
:101A6000009301235B0601F0D1FDFFE7FFE7069835
:101A7000408D00285DD0FFE706980A99029A01F090
:101A800094FE002804D0FFE707A9012008707BE03E
:101A90000699486A0078096888620699486A401C75
:101AA00048620699488D401E48850699088D401E5B
:101AB00008850698408D00283AD0FFE70698008DEB
:101AC000002835D1FFE706980A9B029900918021F2
:101AD000002201F0C5FD002804D0FFE707A901207E
:101AE000087051E00698408D000A00280FD0FFE7EB
:101AF0000699FF200885069805A909882822825C96
:101B00000023009301231B0601F080FD0FE00698DF
:101B1000408D06990885069805A909882822825CC7
:101B20000023009301235B0601F070FDFFE7FFE750
:101B30009DE706980A99029A01F0E7FD002804D073
:101B4000FFE707A9012008701EE006980168202021
:101B5000C86106990A685168A74B194051600699F7
:101B6000412288540699422200208854FFE70699B2
:101B7000402200208854FFE707A90020087003E0F6
:101B800007A902200870FFE707A8007808B010BD79
:101B900000200080B0B58AB0044610980F980E9DC2
:101BA000089407AC218006A90A8005A90B8004A926
:101BB000088008984121405C202800D012E10E984E
:101BC000002805D0FFE704A80088002807D1FFE718
:101BD000089A01204102516409A9087006E1FFE753
:101BE00008984021405C012804D1FFE709A90220A0
:101BF0000870FBE00899402201208854FFE7FFE7C6
:101C0000FFF7A2FD03900898039900910122D103E8
:101C1000192301F025FD002804D0FFE709A90120C0
:101C20000870E3E008994122222088540899422252
:101C3000402088540899002048640E99089A5162FF
:101C40000499089A518508994863089807A9098852
:101C500006AA128805AB1B88109C039D0195009471
:101C600001F076FC00280AD0FFE7FFE70899402240
:101C700000208854FFE709A901200870B6E0089801
:101C8000408D000A00280FD0FFE70899FF20088543
:101C9000089807A909882822825C564B00930123E3
:101CA0001B0601F0B3FC0FE00898408D08990885E9
:101CB000089807A909882822825C4E4B00930123CB
:101CC0005B0601F0A3FCFFE7FFE70898109B039970
:101CD00000910421002201F0C3FC002804D0FFE79A
:101CE00009A90120087081E008980068406A0899F5
:101CF000496A08700899486A401C48620899088D2A
:101D0000401E08850899488D401E48850898408DDA
:101D100000283AD0FFE70898008D002835D1FFE76A
:101D20000898109B039900918021002201F098FCF3
:101D3000002804D0FFE709A90120087056E00898A0
:101D4000408D000A00280FD0FFE70899FF20088582
:101D5000089807A909882822825C002300930123A0
:101D60001B0601F053FC0FE00898408D0899088588
:101D7000089807A909882822825C00230093012380
:101D80005B0601F043FCFFE7FFE7FFE70898408DA3
:101D900000289AD1FFE708981099039A01F0B5FC42
:101DA000002804D0FFE709A9012008701EE0089868
:101DB00001682020C86108990A6851680E4B1940D3
:101DC0005160089941228854089942220020885481
:101DD000FFE70899402200208854FFE709A9002066
:101DE000087003E009A902200870FFE709A800783D
:101DF0000AB0B0BD0024008000E800FE80B588B0C5
:101E00000790002006900590049003900290079898
:101E100000681349884220D1FFE7FFE711480268B4
:101E200002210A4302600068084001900198FFE720
:101E300003200102029112210391002104910590D7
:101E400004200690084802A9FFF7F4FA3E49086802
:101E50000122520510430860FFE708B080BDC0466C
:101E6000005400402C100240000400502D4802781D
:101E700002490868801808607047C04624020020A4
:101E800080B582B001A9002008700B490868402283
:101E900010430860032000F011F8002804D0FFE789
:101EA00001A90120087002E000F040F8FFE701A856
:101EB000007802B080BDC0460020024080B584B0EA
:101EC0000290174800680190164801787D20C000F4
:101ED000FEF724FA01460198FEF720FA01F072F8A5
:101EE000002804D0FFE703A90120087014E002983D
:101EF000032809D8FFE702990022D04300F026F812
:101F000002980949086003E003A90120087003E072
:101F100003A900200870FFE703A8007804B080BD83
:101F20000000002004000020080000200549086887
:101F3000012210430860E149086812071043086055
:101F40007047C046341002403810024080B584B05B
:101F5000034603A8037002910192002140560299A2
:101F600002F0D6FB04B080BD80B586B0049001A914
:101F7000002008700498006820210840202806D01E
:101F8000FFE7049840780007002800D41FE1049878
:101F900000788006002801D5FFE7FFE70498407825
:101FA0000007002801D5FFE7FFE7C4480068C0002C
:101FB000002809D4FFE7C14A11680120030719432B
:101FC000116001A90870FFE7BD480068C00500283E
:101FD0001DD4FFE7BA4908680122120210430860C5
:101FE000FFF7B2FB0390FFE7B5480068C005002883
:101FF0000CD4FFE7FFF7A8FB0399401A652804D328
:10200000FFE705A90320087053E1EDE7FFE7AD48BE
:10201000006803210A05104002900298049949685B
:102020001140884209D1FFE7029804998968032288
:1020300012051140884214D0FFE70498406803213C
:102040000904084088420BD1FFE79E4800688003DE
:10205000002804D5FFE705A90120087029E1FFE762
:10206000FFE799480068032109040840029002989C
:10207000002851D0FFE7029804994968032212040E
:102080001140884207D0FFE70498006820210840EB
:1020900020280FD0FFE702980499896803221204D0
:1020A0001140884238D0FFE70498407800070028A4
:1020B00032D5FFE784490868032212049043029056
:1020C00008680122D2041043086008689043086041
:1020D0000298086002A84078C00700281BD0FFE7DC
:1020E000FFF732FB0390FFE77748006801214902C0
:1020F0000840400A00280DD1FFE7FFF725FB0399B0
:10210000401A7349884204D3FFE705A903200870E9
:10211000CFE0E9E7FFE7FFE70498407800070028F1
:1021200021D5FFE7FFE7FFE7049880680321090452
:10213000084088420BD1FFE7624908680322130573
:102140009843049A92681A4080180860FFE7FFE7F6
:10215000049882680320000402405B490868104329
:102160000860FFE7FFE7049800788006002821D583
:10217000FFE7FFE7FFE704984068032109040840F0
:1021800088420BD1FFE74F490868032213059843A3
:10219000049A52681A4080180860FFE7FFE7049825
:1021A0004268032000040240474908681043086061
:1021B000FFE7FFE701A80078012807D1FFE73F49C3
:1021C00008680122120790430860FFE7FFE70498C0
:1021D0000078C007002809D0FFE73C4908680322BF
:1021E0009043049AD26810430860FFE7049800788F
:1021F0008007002809D5FFE7344908680C2290437E
:10220000049A126910430860FFE7049800784007B9
:1022100000280AD5FFE72D4908680322920290435F
:10222000049A526910430860FFE704980078000799
:1022300000280AD5FFE725490868032212039043C6
:10224000049A926910430860FFE704984078C00739
:1022500000280AD0FFE71D490868032212049043B2
:10226000049AD26910430860FFE70498007840069A
:1022700000280AD5FFE71549086801229206904315
:10228000049A526A10430860FFE704980078000639
:1022900000280AD5FFE70D490868032292049043FD
:1022A000049A126A10430860FFE705A9002008702D
:1022B000FFE705A8007806B080BDC0463810024090
:1022C0000070004000100240501002404C100240CC
:1022D0008913000080B586B004900391049800280B
:1022E00004D1FFE705A90120087062E10398B34912
:1022F000096801221140884221D9FFE7AF490868E7
:1023000001229043039A10430860FFF71DFA0290E0
:10231000FFE7AA48006801210840039988420DD0D0
:10232000FFE7FFF711FA0299401AA549884204D342
:10233000FFE705A9032008703BE1EAE7FFE70498FF
:1023400000788007002809D5FFE7B1490868F02226
:102350009043049A926810430860FFE7049800785D
:10236000C007002800D1BCE00498406802280ED1C4
:10237000FFE7F3480068012149040840400C0028A9
:1023800004D1FFE705A90120087012E134E00498A8
:10239000406803280ED1FFE7E9480068012149069B
:1023A0000840400E002804D1FFE705A9012008706D
:1023B000FFE020E00498406801280DD1FFE7E048E5
:1023C0000068042108408008002804D1FFE705A91F
:1023D00001200870EDE00DE0D948006801214902B4
:1023E0000840400A002804D1FFE705A90120087031
:1023F000DFE0FFE7FFE7FFE7CF49086803229043EC
:10240000049A526810430860FFF79EF902900498FE
:102410004068022816D1FFE7FFE7C74800680C2193
:10242000084008280DD0FFE7FFF78EF90299401AFF
:102430006349884204D3FFE705A903200870B8E088
:10244000EBE74DE004984068032816D1FFE7FFE76B
:10245000B94800680C2108400C280DD0FFE7FFF7B1
:1024600073F90299401A5649884204D3FFE705A937
:10247000032008709DE0EBE731E0049840680128F4
:1024800016D1FFE7FFE7AC4800680C21084004289C
:102490000DD0FFE7FFF758F90299401A48498842E2
:1024A00004D3FFE705A90320087082E0EBE715E0FD
:1024B000FFE7A14800680007800F00280DD0FFE764
:1024C000FFF742F90299401A3D49884204D3FFE7D9
:1024D00005A9032008706CE0EBE7FFE7FFE7FFE7E3
:1024E000FFE703983549096801221140884221D24B
:1024F000FFE73249086801229043039A10430860BD
:10250000FFF722F90290FFE72C48006801210840FC
:10251000039988420DD0FFE7FFF716F90299401A98
:102520002749884204D3FFE705A90320087040E04B
:10253000EAE7FFE704980078400700280AD5FFE79C
:102540007D490868072212029043049AD26810431A
:102550000860FFE704980078000700280BD5FFE724
:10256000754908680722D2029043049A1269D20082
:1025700010430860FFE700F04FF86F490968C9B2DF
:102580000A091049895CC840124908600E48006871
:10259000FFF794FC014601A801700078002804D0E0
:1025A000FFE7019805A9087003E005A9002008705D
:1025B000FFE705A8007806B080BDC04600200240B5
:1025C0008913000008560008080000200148006830
:1025D0007047C0460000002080B5FFF7F7FF56495E
:1025E00009680722120211400A0A0A49895CC84098
:1025F00080BDC04680B5FFF7E9FF4F490968072253
:10260000D2021140CA0A0349895CC84080BDC04655
:102610000C1002401856000880B58AB04648006881
:10262000099009980C21084003900C2875D803984C
:10263000810001A040588746192700081B27000881
:102640001B2700081B2700086D2600081B27000811
:102650001B2700081B270008872600081B270008E7
:102660001B2700081B2700088D2600083448006837
:10267000C006002803D5FFE73348049002E0314844
:102680000490FFE755E03148049052E009980F218B
:1026900089040840810C2948405C0890099803216E
:1026A00089050840800D401C079023480068C0033E
:1026B00000280DD5FFE70898244A00230293194605
:1026C000FDF76CFD029B079AFDF780FD069020E068
:1026D0001B480068C00600280DD5FFE708981A4A75
:1026E000002301931946FDF759FD019B079AFDF759
:1026F0006DFD06900CE00898124A002300931946DD
:10270000FDF74CFD009B079AFDF760FD0690FFE783
:10271000FFE7069804900CE0FFE70D48006880B2E0
:10272000400B05900598411C01208840C00304908F
:10273000FFE704980AB080BD0C1002402056000844
:10274000001002400024F40000093D0000127A004D
:102750000410024010B58AB008900898002805D1EE
:10276000FFE709A90120087000F015FCFD48016889
:102770000C221140049100680121090408400390D3
:1027800008980078C007002800D18DE00498082838
:102790000AD0FFE704980C2819D1FFE7039801211C
:1027A0000904884213D1FFE7EF480068012149047A
:1027B0000840400C002809D0FFE70898406800282E
:1027C00004D1FFE709A901200870E4E36BE0FFE70B
:1027D0000898406801210904884207D1FFE7E249CF
:1027E0000868012212041043086021E0089840683C
:1027F0000521090488420BD1FFE7DB490868012263
:1028000093041843086008681204104308600EE03F
:10281000D5490868012213049843086008681840E5
:10282000029002980868920490430860FFE7FFE76F
:10283000FFE70898406800281AD0FFE7FEF784FFFA
:102840000790FFE7C8480068012149040840400C90
:1028500000280CD1FFE7FEF777FF0799401A65289B
:1028600004D3FFE709A90320087094E3EAE719E01D
:10287000FEF76AFF0790FFE7BB48006801214904A3
:102880000840400C00280CD0FFE7FEF75DFF0799D9
:10289000401A652804D3FFE709A9032008707AE3EA
:1028A000EAE7FFE7FFE7FFE70898007880070028DE
:1028B00000D4A8E00898C068069006A800788006B2
:1028C000002809D5FFE7A84A1068202108431060B6
:1028D000069888430690FFE70498042808D0FFE78D
:1028E00004980C2841D1FFE7039800283DD1FFE769
:1028F0009D480068042108408008002808D0FFE7B0
:102900000698002804D1FFE709A90120087042E3D6
:10291000964908681F2212029043089A126912020F
:10292000104308609049086809229043069A1043B2
:102930000860FFE7FFF770FE8A490968C9B20A0913
:102940008B49895CC8408B4908608B480068FFF759
:10295000B5FA014605A801700078002804D0FFE709
:10296000059809A9087016E34CE0069800282AD0BB
:10297000FFE77D49086809229043069A10430860E2
:10298000FEF7E2FE0790FFE7774800680421084061
:10299000800800280CD1FFE7FEF7D6FE0799401A01
:1029A000032804D3FFE709A903200870F3E2EBE74B
:1029B0006E4908681F2212029043089A1269120297
:1029C000104308601DE068490868012290430860D0
:1029D000FEF7BAFE0790FFE763480068042108404D
:1029E000800800280CD0FFE7FEF7AEFE0799401ADA
:1029F000032804D3FFE709A903200870CBE2EBE723
:102A0000FFE7FFE7FFE708980078C006002800D43A
:102A1000A1E00498002845D1FFE753480068012150
:102A200049020840400A002809D0FFE70898C06919
:102A3000002804D1FFE709A901200870ABE24B4947
:102A40000868072252039043089A526A10430860AC
:102A50000868FF2212069043089A126A120680182C
:102A600008600898406A400B411C01208840C00360
:102A70003C490968C9B20A093D49895CC8403D49D9
:102A800008603D480068FFF719FA014605A8017083
:102A90000078002804D0FFE7059809A908707AE2B9
:102AA000FFE757E00898C069002832D0FFE72E49B9
:102AB00008680122120210430860FEF745FE0790E5
:102AC000FFE729480068012149020840400A002820
:102AD0000CD1FFE7FEF738FE0799401A032804D30C
:102AE000FFE709A90320087055E2EAE71F490868D3
:102AF000072252039043089A526A104308600868FC
:102B0000FF2212069043089A126A12068018086083
:102B10001FE0154908680122120290430860FEF781
:102B200013FE0790FFE710480068012149020840A2
:102B3000400A00280CD0FFE7FEF706FE0799401A6E
:102B4000032804D3FFE709A90320087023E2EAE77A
:102B5000FFE7FFE7FFE708980078000700284FD558
:102B60000CE0C0460C10024000100240041002406D
:102B7000085600080000002008000020089840695E
:102B800000281ED0FFE7FD490868012210430860B5
:102B9000FEF7DAFD0790FFE7F848006802210840D9
:102BA000400800280CD1FFE7FEF7CEFD0799401A38
:102BB000032804D3FFE709A903200870EBE1EBE742
:102BC0001DE0F9490868012290430860FEF7BCFD4A
:102BD0000790FFE7F44800680221084040080028F9
:102BE0000CD0FFE7FEF7B0FD0799401A032804D385
:102BF000FFE709A903200870CDE1EBE7FFE7FFE756
:102C0000089800784007002800D4BBE001A9002004
:102C10000870E6480068C000002809D4FFE7E34ACE
:102C20001168012003071943116001A90870FFE72B
:102C3000DF480068C00500281DD4FFE7DC490868AC
:102C40000122120210430860FEF77EFD0790FFE7A5
:102C5000D7480068C00500280CD4FFE7FEF774FDD4
:102C60000799401A652804D3FFE709A903200870D3
:102C700091E1EDE7FFE7FFE708988068012109028D
:102C8000884207D1FFE7C8490868012212021043B1
:102C900008602EE00898806800280BD1FFE7C24941
:102CA0000868012213029843086008689202904362
:102CB00008601DE0089880680521090288420BD150
:102CC000FFE7B949086801229302184308600868C1
:102CD0001202104308600AE0B34908680122130297
:102CE000984308600868920290430860FFE7FFE796
:102CF000FFE7FFE70898806800281BD0FFE7FEF792
:102D000023FD0790FFE7A848006801214902084019
:102D1000400A00280DD1FFE7FEF716FD0799401A7B
:102D2000A449884204D3FFE709A90320087032E1CF
:102D3000E9E71AE0FEF708FD0790FFE79A48006808
:102D4000012149020840400A00280DD0FFE7FEF7A4
:102D5000FBFC0799401A9749884204D3FFE709A969
:102D60000320087017E1E9E7FFE701A800780128D0
:102D700007D1FFE7F3490868012212079043086072
:102D8000FFE7FFE7089800788006002854D5FFE7A2
:102D900008988069002829D0FFE7FFE7864908687E
:102DA000012210430860864908681043086083497F
:102DB0000868520310430860FFE7FEF7C5FC079060
:102DC000FFE77D48006802210840400800280CD138
:102DD000FFE7FEF7B9FC0799401A032804D3FFE781
:102DE00009A903200870D6E0EBE724E0FFE7724969
:102DF00008680122904308607049086852039043B4
:102E00000860FFE7FEF7A0FC0790FFE76A4800684C
:102E100002210840400800280CD0FFE7FEF794FC90
:102E20000799401A032804D3FFE709A90320087073
:102E3000B1E0EBE7FFE7FFE70898806A002800D1E0
:102E4000A5E004980C2872D0FFE70898806A022851
:102E50004CD1FFE7534908680122120690430860ED
:102E6000FEF772FC0790FFE74E4800680121490613
:102E70000840400E00280CD0FFE7FEF765FC0799DC
:102E8000401A032804D3FFE709A90320087082E051
:102E9000EAE743490868FD2212049043089BDA6A76
:102EA0001C6B22435B6B1A43104308603D49086862
:102EB0000122120610430860FEF746FC0790FFE768
:102EC00038480068012149060840400E00280CD10E
:102ED000FFE7FEF739FC0799401A032804D3FFE700
:102EE00009A90320087056E0EAE71FE02D490868A9
:102EF0000122120690430860FEF726FC0790FFE7C8
:102F000028480068012149060840400E00280CD0DE
:102F1000FFE7FEF719FC0799401A032804D3FFE7DF
:102F200009A90320087036E0EAE7FFE72EE00898D9
:102F3000806A012804D1FFE709A9012008702AE06E
:102F40001748006803900398012109040840089974
:102F5000C96A884214D1FFE703980F218904084009
:102F60000899096B88420BD1FFE703980321890573
:102F700008400899496B884206D001E05010024091
:102F800009A90120087006E0FFE7FFE7FFE709A9AC
:102F900000200870FFE709A800780AB010BDC046FD
:102FA0000C10024000100240501002403810024045
:102FB000007000408913000008100240200001400A
:102FC0003410024080B582B00190019800F006FEF6
:102FD00002B080BD85B003900291FFE703983821CD
:102FE000405C012804D1FFE704A90220087053E0E7
:102FF0000399382201208854FFE7FFE7039939221B
:103000000220885403980068406801900398006883
:1030100080680090019870218843019002980168AF
:103020000198084301900198039909684860039842
:10303000006801218907884212D0FFE703980068E1
:10304000694988420CD0FFE70398006867498842C5
:1030500006D0FFE703980068654988420ED1FFE774
:1030600000988021884300900298416800980843A6
:1030700000900098039909688860FFE70399392256
:1030800001208854FFE70399382200208854FFE785
:1030900004A900200870FFE704A8007805B0704775
:1030A00080B582B000900098002804D1FFE701A904
:1030B0000120087030E000983921405C002808D1D8
:1030C000FFE70099382200208854009800F028F883
:1030D000FFE70099392202208854009901C900F0C5
:1030E00003FE00993E2201208854FFE700993A220E
:1030F0000120885400993B22885400993C2288542E
:1031000000993D228854FFE7009939220120885414
:1031100001A900200870FFE701A8007802B080BD77
:1031200081B00090009800680549884206D1FFE709
:1031300076490868102210430860FFE701B0704725
:10314000001000403810024083B0019001983921EE
:10315000405C012804D0FFE702A9012008703EE08E
:10316000019939220220885401980268D06801210F
:103170000843D060019800688907884212D0FFE7B1
:1031800001980068184988420CD0FFE70198006850
:103190001649884206D0FFE7019800681449884222
:1031A00012D1FFE70198006880680721084000906D
:1031B0000098062807D0FFE70198016808680122F7
:1031C00010430860FFE706E00198016808680122E3
:1031D00010430860FFE702A900200870FFE702A87B
:1031E000007803B07047C04600040040000801406A
:1031F0000014014080B582B000900098002804D1EE
:10320000FFE701A90120087048E0009880690028C4
:1032100001D0FFE700E0FFE70098C06F002808D169
:10322000FFE70099782200208854009800F03AF8CF
:10323000FFE700992420C867009801680868012208
:1032400090430860009800F065FF012804D1FFE773
:1032500001A90120087021E00098406A002804D0EC
:10326000FFE7009800F0A2FDFFE7009801684868BA
:103270000922D202904348600098016888682A2297
:103280009043886000980168086801221043086034
:10329000009800F039FE01A90870FFE701A8007846
:1032A00002B080BD80B588B00790002006900590E0
:1032B000049003900290079800681349884220D137
:1032C000FFE7124908680122D20410430860FFE7B3
:1032D0000F48026801210A4302600068084001901B
:1032E0000198FFE70320029002210391002104913D
:1032F0000590062006900520000702A9FEF79AF81F
:10330000FFE708B080BDC046004C004038100240C6
:103310002C100240FFE7FEE781B0009000980068A3
:103320008069022108404008002805D0FFE7009886
:10333000016800208862FFE7009800688069C00784
:10334000002807D1FFE7009801688869012210432F
:103350008861FFE701B0704780B58AB00990089195
:10336000079206A9002008700999096889690591E2
:1033700004900798039005A80078C006002800D4A0
:1033800084E0099801681020C861FFE70998006887
:10339000806920210840410900200029009006D1C1
:1033A000FFE706A80078414248410090FFE70098F7
:1033B000C007002858D0FFE70898401C002852D0CA
:1033C000FFE7FEF7C1F90399401A0899884204D82B
:1033D000FFE70898002845D1FFE709980068406892
:1033E000012189030840029009984221405C01A90B
:1033F000087009980068806980B2C00B002816D058
:10340000FFE7029801218903884210D0FFE701A855
:10341000007820280BD0FFE709980168486801224E
:10342000920310434860FEF78FF90390FFE7FFE730
:10343000099800688069202108404009002810D1BF
:10344000FFE7FEF781F90399401A1A2808D3FFE72E
:10345000049820210843049006A90120087000E088
:10346000E6E7FFE7FFE791E706A80078002805D127
:10347000FFE7099801682020C861FFE7049804214C
:103480000843049006A901200870FFE70998006826
:103490008069059005A84078C00700280BD0FFE799
:1034A000049901200143049109990A680102D1613C
:1034B00006A90870FFE705A84078400700280CD54A
:1034C000FFE7049808210843049009980268012046
:1034D0008102D16106A90870FFE705A8407880073E
:1034E00000280CD5FFE704980221084304900998AE
:1034F000026801204102D16106A90870FFE706A811
:10350000007800281DD0FFE70998FFF705FF09980C
:10351000016848680D4A10404860049A0999486C4F
:103520001043486409994122202088540999422275
:1035300000208854FFE70999402200208854FFE7C3
:10354000FFE706A800780AB080BDC04600E800FE8C
:1035500010B588B00291014602980B9C0A9C069116
:1035600005A9088004A8028003AA13800698098888
:103570001278254B0093002300F048F806980A992A
:103580000B9A00F012F9002804D0FFE707A90120E8
:10359000087034E003A80088012806D1FFE704A8DA
:1035A000007806990968886216E004A840780699B0
:1035B0000968886206980A990B9A00F0F6F80028C4
:1035C00004D0FFE707A90120087018E004A80078DC
:1035D000069909688862FFE706980A9B0B99009193
:1035E0004021002200F03CF8002804D0FFE707A9A2
:1035F0000120087003E007A900200870FFE707A872
:10360000007808B010BDC0460020008010B585B01D
:10361000079C049003A8018002A90A700193008806
:103620000D4A104009780904401801990843079988
:1036300008430121C9078843009004980068406846
:103640000799490D884305490840009908430499A2
:103650000968486005B010BDFF030000009C00FC35
:1036600010B586B0089C0490039102A802700193E3
:10367000FFE704980068806903990840401A4142B6
:10368000484102A90978884237D1FFE70198401CD8
:10369000002831D0FFE7FEF757F80899401A019942
:1036A000884204D8FFE70198002824D1FFE7049856
:1036B0000068806903990840401A4142484102A9C4
:1036C0000978884216D1FFE7049A516C2020014303
:1036D000516404994122885404994222002088545C
:1036E000FFE70499402200208854FFE705A9012044
:1036F000087006E0FFE7FFE7BBE705A900200870B8
:10370000FFE705A8007806B010BD80B584B0029030
:1037100001910092FFE7029800688069202108402B
:103720004009002839D1FFE702980199009AFFF774
:1037300013FE002804D0FFE703A90120087030E041
:10374000FEF702F80099401A0199884204D8FFE771
:103750000198002820D1FFE70298006880692021A5
:1037600008404009002816D1FFE7029A516C20203A
:103770000143516402994122885402994222002057
:103780008854FFE70299402200208854FFE703A9EC
:103790000120087005E0FFE7BDE703A900200870DD
:1037A000FFE703A8007804B080BD80B584B0029024
:1037B00001910092FFE702980068806902210840A9
:1037C000400800283FD1FFE702980199009AFFF7CF
:1037D000C3FD002804D0FFE703A90120087036E0EC
:1037E0000198401C00282DD0FFE7FDF7ADFF0099A0
:1037F000401A0199884204D8FFE70198002820D197
:10380000FFE702980068806902210840400800280C
:1038100016D1FFE7029A516C2020014351640299AE
:10382000412288540299422200208854FFE70299DD
:10383000402200208854FFE703A90120087006E019
:10384000FFE7FFE7B7E703A900200870FFE703A839
:10385000007804B080BD000080B58AB000200990D7
:103860000890079006900590FFE71D480268042124
:103870000A4302600068084004900498FFE7FFE7ED
:103880001748026880210A430260006808400390DC
:103890000398FFE7FFE71248026801210A4302602C
:1038A0000068084002900298FFE7FFE70C480268B2
:1038B00002210A4302600068084001900198FFE776
:1038C00003200590122106910021079108900720FE
:1038D0000990044805A9FDF7ADFD0AB080BDC046BA
:1038E0002C1002400008005080B582B016480190AC
:1038F0001649016016494160002181600122C260C1
:10390000016141618161C1610162FDF7BFFF002872
:1039100003D0FFE7FDF787FDFFE70B480021FDF728
:1039200019FF002803D0FFE7FDF77DFDFFE70648FC
:103930000021FDF75AFF002803D0FFE7FDF773FDD4
:10394000FFE702B080BDC0460401002000540040E3
:103950008266500080B582B000210191009111482B
:10396000114A0260114A426081607D218900C16074
:1039700080214161FFF794FB002803D0FFE7FDF7AA
:1039800052FDFFE700200090019006486946FFF7CE
:1039900021FB002803D0FFE7FDF745FDFFE702B05C
:1039A00080BDC0465801002000100040C05D0000EE
:1039B00080B582B00D4801900D490160E1214902B6
:1039C000416000218160C16001610C22426181611E
:1039D000C16101624162FFF70DFC002803D0FFE7DF
:1039E000FDF721FDFFE702B080BDC0469801002031
:1039F000004C0040FFE7FEE77047000080B58EB046
:103A000000200C900B900A900990FFE70998092874
:103A10004ADCFFE7099881003B484058FDF772F8FF
:103A20000122930706930022059201F001F801900C
:103A300002910C98FDF766F8019A029BFCF7E2FEF2
:103A4000FCF726FD0C900998810030484058FDF79E
:103A500059F8059A069B00F0EBFF039004910B9830
:103A6000FDF750F8039A049BFCF7CCFEFCF710FD21
:103A70000B900998810026484058FDF743F8059AB5
:103A8000069B00F0D5FF079008910A98FDF73AF8D9
:103A9000079A089BFCF7B6FEFCF7FAFC0A90FFE7D2
:103AA0000998401C0990B1E70C9813490091FDF763
:103AB00053F8FDF727F801F0A5FCFCF7E9FC0099A5
:103AC0000E4A10600B98FDF747F8FDF71BF801F060
:103AD00099FCFCF7DDFC0099094A10600A98FDF793
:103AE0003BF8FDF70FF801F08DFCFCF7D1FC054920
:103AF00008600EB080BDC04600002041E8000020F4
:103B0000EC000020F0000020700000209800002051
:103B1000C000002080B586B0322000F065FE244A47
:103B2000507800021178411822480180D1780902AA
:103B30009378C918204B00931980517909021279A2
:103B400089181E4A0292118000210191405EFCF703
:103B5000AAFE1B4A03921B4B0493FCF7AFFE1A4AC2
:103B600005921140FCF794FC019902460098174B0E
:103B70001A60405EFCF797FE039A049BFCF79EFEDA
:103B8000059A1140FCF784FC019902460298104BFB
:103B90001A60405EFCF787FE039A049BFCF78EFEDA
:103BA000059A1140FCF774FC0A49086006B080BD14
:103BB000FC000020280200203002002038020020F3
:103BC000DE718A8EE4F27F3FFFFFFF7F2C02002030
:103BD000340200203C0200207047000080B584B011
:103BE00002900298401E000E002803D0FFE701203B
:103BF000039011E00298401E0949086000200190DE
:103C0000C043032100F084FD019806490860064A7C
:103C1000072111600390FFE7039804B080BDC04600
:103C200014E000E018E000E010E000E080B5FEF7EE
:103C30001DF902490868401C086080BDF80000209A
:103C4000B0B5A0B012A802903821FCF765FB0020A7
:103C50000190119010900F900E900D9003A82821C4
:103C6000FCF75AFB019A02981D4C23680321C902F4
:103C70008B430121CD025B1923600223129315911E
:103C8000102416941C931D921E9289051F91FEF715
:103C900061FD002803D0FFE7FDF7C5FBFFE70F201C
:103CA0000D9003200E9000200F90109011900DA801
:103CB0000121FEF70FFB002803D0FFE7FDF7B3FB60
:103CC000FFE7082003900020099003A8FEF74CF9B5
:103CD000002803D0FFE7FDF7A6FBFFE720B0B0BD4B
:103CE000007000407047000083B00290019102987C
:103CF0000068009002980121890788420FD0FFE7F1
:103D00000298274988420AD0FFE70298254988424D
:103D100005D0FFE70298244988420AD1FFE70098BE
:103D200070218843009001984168009808430090F2
:103D3000FFE702980121890788420FD0FFE7029828
:103D4000174988420AD0FFE702981649884205D0F1
:103D5000FFE70298144988420BD1FFE7009803213E
:103D60000902884300900198C168009808430090B8
:103D7000FFE7009880218843019909690843009072
:103D8000009802990860019880680299C8620198B9
:103D900000680299886202990120486103B0704767
:103DA00000040040000801400014014081B0009070
:103DB00000982421405CC00700280CD0FFE7009841
:103DC0000068406801214904884300998A6A1043C9
:103DD00009684860FFE700982421405C80070028BC
:103DE0000CD5FFE70098006840680121090488436A
:103DF0000099CA6A104309684860FFE700982421C7
:103E0000405C400700280CD5FFE700980068406838
:103E100001218904884300990A6B104309684860AE
:103E2000FFE700982421405C000700280CD5FFE73D
:103E30000098006840680121C903884300994A6BD3
:103E4000104309684860FFE700982421405CC006E1
:103E500000280CD5FFE7009800688068012109035D
:103E6000884300998A6B104309688860FFE70098CF
:103E70002421405C800600280CD5FFE700980068EC
:103E800080680121490388430099CA6B104309687F
:103E90008860FFE700982421405C400600281DD57B
:103EA000FFE7009800684068012109058843009AEF
:103EB000136C1843126850600098006C88420CD153
:103EC000FFE700980068406803214905884300998E
:103ED0004A6C104309684860FFE7FFE70098242117
:103EE000405C000600280CD5FFE700980068406899
:103EF0000121C904884300998A6C1043096848600D
:103F0000FFE701B07047000080B590B005900599BB
:103F1000842200208850FDF717FC04900598006863
:103F200000680007002831D5FFE70598049B4C493D
:103F3000009101214905002200F06EFB002824D0E9
:103F4000FFE7FFE7EFF31080099009980390012045
:103F50000F900F9880F310880598016808688022F8
:103F60009043086003980E900E9880F31088FFE746
:103F700005992020C867FFE705997822002088541A
:103F8000FFE706A90320087065E0FFE705980068D1
:103F900000684007002849D5FFE70598049B304991
:103FA000009101218905002200F036FB00283CD059
:103FB000FFE7FFE7EFF310800890089802900120D8
:103FC0000D900D9880F31088059801680868092203
:103FD00052019043086002980C900C9880F310886E
:103FE000FFE7FFE7EFF310800790079801900122A9
:103FF0000B920B9880F310880598016888689043AD
:10400000886001980A900A9880F31088FFE7059964
:10401000802220208850FFE70599782200208854CC
:10402000FFE706A90320087015E0FFE705992020A7
:10403000C86705998022885005990020086605996F
:104040004866FFE70599782200208854FFE706A913
:1040500000200870FFE706A8007810B080BDC046B9
:10406000FFFFFF018DB00390FFE7EFF31080069094
:104070000698029001200C900C9880F31088039809
:1040800001680868092252019043086002980B9069
:104090000B9880F31088FFE7FFE7EFF3108005909F
:1040A0000598019001220A920A9880F310880398DB
:1040B000016888689043886001980990099880F3A6
:1040C0001088FFE70398006E012818D1FFE7FFE78B
:1040D000EFF3108004900498009001200890089855
:1040E00080F31088039801680868102290430860E4
:1040F00000980790079880F31088FFE7FFE703997F
:104100008022202088500399002008660399886641
:104110000DB0704710B58EB00D9008A90020087042
:104120000D980068D549884201D1FFE700E0FFE71C
:104130000D9988680A6910434A691043C9690843A0
:104140000C900D9800680068F74908400C990843E6
:104150000D99096808600D980068406803210903FB
:1041600088430D99CA681043096848600D988069B2
:104170000C900D980068C149884206D0FFE70D9861
:10418000016A0C9808430C90FFE70D98006880685E
:104190000B21090288430C9908430D99096888602E
:1041A000FFE70D980068EE4988422AD1FFE7ED4805
:1041B000006803210840069003281DD80698810056
:1041C00001A040588746C046D9410008E94100088F
:1041D000E1410008F14100080AA9012008700FE040
:1041E0000AA9022008700BE00AA90420087007E061
:1041F0000AA90820087003E00AA910200870FFE748
:1042000093E00D980068FD4988423CD1FFE7D5480E
:1042100000680C21084005900C282FD805988100D3
:1042200001A040588746C0465D4200087D42000814
:104230007D4200087D4200086D4200087D42000872
:104240007D4200087D420008654200087D4200086A
:104250007D4200087D420008754200080AA900203E
:1042600008700FE00AA9022008700BE00AA90420D8
:10427000087007E00AA90820087003E00AA91020C6
:104280000870FFE750E00D980068DD49884204D1CE
:10429000FFE70AA90020087045E00D980068D94999
:1042A000884204D1FFE70AA9002008703AE00D987F
:1042B0000068D149884230D1FFE7D3480068032124
:1042C000890208400490002812D0FFE704980121D9
:1042D0008902884214D0FFE704980121C90288426C
:1042E0000AD0FFE704980321890288420CD00FE02E
:1042F0000AA9002008700FE00AA9022008700BE04C
:104300000AA90420087007E00AA90820087003E041
:104310000AA910200870FFE703E00AA9102008701E
:10432000FFE7FFE7FFE7FFE7FFE7FFE70D9800681C
:10433000B149884276D1FFE70AA80078039008289F
:1043400031D80398810001A0405887467143000886
:10435000A743000879430008A743000897430008D3
:10436000A7430008A7430008A74300089F4300088D
:10437000FEF732F907901CE0A448006810210840BD
:104380000009002803D0FFE7A248079002E0A048F8
:104390000790FFE70DE0FEF73FF9079009E00120E5
:1043A000C003079005E00020079008A901200870CD
:1043B000FFE70798002834D0FFE707980D994A686F
:1043C00003215143884207D3FFE707980D994968B5
:1043D0000903884204D9FFE708A9012008701FE0FB
:1043E0000798010E00020D9A526854080023001924
:1043F0005941FBF7EBFE09900998000A03280AD3FC
:10440000FFE70998000D002805D1FFE709980D99ED
:104410000968C86003E008A901200870FFE7FFE70A
:10442000FFE7E0E00D98C0690121C903884271D11E
:10443000FFE70AA800780290082838D8029881007F
:1044400001A040588746C0466D44000875440008E6
:1044500081440008AF4400089F440008AF440008AE
:10446000AF440008AF440008A7440008FEF7B4F8C2
:10447000079022E0FEF7BEF807901EE000480040DB
:1044800062480068102108400009002803D0FFE7B7
:104490006048079002E05E480790FFE70DE0FEF7F6
:1044A000BBF8079009E00120C003079005E0002059
:1044B000079008A901200870FFE70798002828D076
:1044C000FFE7079840000D9949684A088018FBF7F4
:1044D00025FF09900998102816D3FFE709A84088FE
:1044E000002811D1FFE709990F2081430BA8018013
:1044F00009990E2211404A080B9911430180008846
:104500000D990968C86003E008A901200870FFE759
:10451000FFE767E00AA80078019008283BD80198D7
:10452000810002A040588746F369FFEF514500081B
:104530005945000869450008974500088745000867
:104540009745000897450008974500088F450008E3
:10455000FEF742F8079024E0FEF74CF8079020E0C1
:10456000003801404C1002402848006810210840E3
:104570000009002803D0FFE72648079002E02448FE
:104580000790FFE70DE0FEF747F8079009E00120EC
:10459000C003079005E00020079008A901200870DB
:1045A000FFE7079800281CD0FFE707980D99496896
:1045B0004A088018FBF7B2FE0990099810280BD31F
:1045C000FFE709A84088002806D1FFE709A800886E
:1045D0000D990968C86003E008A901200870FFE789
:1045E000FFE7FFE7FFE70D99002088660D99C86691
:1045F00008A800780EB010BD0048004000440040FC
:10460000004C0040005000404C100240001002409E
:104610000024F40000093D0010B586B0089C049009
:10462000039102A802700193FFE704980068C06933
:1046300003990840401A4142484102A9097888423A
:104640005ED1FFE70898401C002858D0FFE7FDF72F
:104650007BF80199401A0899884204D8FFE7089826
:10466000002804D1FFE705A9032008704CE0049856
:10467000006800684007002840D5FFE704980068FC
:10468000C06908210840C008012816D1FFE7049836
:1046900001680820009008620498FFF7E3FC009886
:1046A000049984228850FFE70499782200208854D6
:1046B000FFE705A90120087026E004980068C0699A
:1046C0000121C9020840C00A012816D1FFE7049859
:1046D00001680120C00208620498FFF7C3FC049936
:1046E000842220208850FFE70499782200208854F3
:1046F000FFE705A90320087006E0FFE7FFE794E75E
:1047000005A900200870FFE705A8007806B010BDD5
:1047100070B582B0024601A8027000910021405697
:10472000002816D4FFE7002401A908570322D34329
:104730001840174A805809578C07E50EFF24AC40F3
:10474000A043009CA401E4B2AC402043194088502F
:104750001AE001A908780F24204008380322D34327
:1047600018400A4A8058002549578D07EE0EFF254C
:10477000B540A843009DAD01EDB2B54028432140AE
:10478000083919408850FFE702B070BD1CED00E009
:1047900000E400E080B582B00020009000F010F846
:1047A0003120012100F036F800992D20019000F011
:1047B00031F80198082100F02DF802B080BD00000A
:1047C00080B584B0014603A801700278642002908D
:1047D00001230193034800901848A621FDF7DAF958
:1047E00004B080BDF400002080B584B0014603A869
:1047F0000170027864200290062001900448009025
:104800000E48A6210123FDF7C5F904B080BDC046BE
:10481000FC00002080B584B003AA107002A80170CB
:10482000039801AA10700298507064200090034809
:10483000A6210223FDF7B0F804B080BD04010020DA
:1048400080B582B000200190FDF71AFBFFF7F8F960
:10485000FFF702F8FFF748F8FFF7AAF8FFF77AF832
:10486000FFF798FF1148FEF76FFC002804D0FFE720
:104870000F4905200870FFE7FFE70E480068C828C9
:1048800013D1FFE7FFF746F900F016F809490020B9
:104890000860164800680A2806D1FFE7FFF7AEF85F
:1048A000124900200860FFE7FFE7E6E75801002013
:1048B00002010020F80000200B4800680B490A683C
:1048C00093000B4AD0500B4800680A6893000A4ACC
:1048D000D0500A4800680A689300094AD050086816
:1048E000401C08607047C0462C02002020020020B7
:1048F0007000002034020020980000203C020020BC
:10490000C00000204900CA020243100000D0042069
:104910004A0D01D001221043044A490D914201D1B0
:1049200002210843012800D105207047FF0700003D
:10493000F8B504464F1EC8000838211815461E4613
:10494000086849683A4606239A4310D02A463346F7
:10495000FBF7B4FF3A46D200083AA3181A687F1E44
:104960005B68FBF74FFF06223B469343EED1022FD5
:1049700023D0042F11D0062F2FD12A463346FBF720
:104980009DFFE36AA26AFBF73DFF2A463346FBF729
:1049900095FF636A226AFBF735FF2A463346FBF729
:1049A0008DFFE369A269FBF72DFF2A463346FBF72B
:1049B00085FF63692269FBF725FF2A463346FBF72B
:1049C0007DFFE368A268FBF71DFF2A463346FBF72D
:1049D00075FF63682268FBF715FFF8BD002210B56C
:1049E000134610460149FCF773F910BD0000F03F73
:1049F00010B5FBF707FF10BD002210B51346104697
:104A00001146FCF765F910BD10B50721024A0020D8
:104A10000907FCF781FB10BD01030000034A10B534
:104A200000201107FCF778FB10BD000001FDFFFF1F
:104A3000F0B51FB494B084460C460246179D1698F4
:104A40000090490068006300490840080393002A69
:104A500001D0012600E000269E19FB4BF6185B10E2
:104A60009E422BD36E00009F0196002F00D001279D
:104A7000F719F54EF54BBE199E421FD3009E034613
:104A8000F34F334309D03B469C4201D1002A04D066
:104A9000039B002A05D0012604E00020394619B006
:104AA000F0BD00269E19EB4B9E4207D8009F019E49
:104AB000002F00D00127F6199E4207D92B466046E9
:104AC0002146169AFFF794FF19B0F0BD0023002C81
:104AD00029DAE14EB04226DAE04EB04201DB022391
:104AE00021E0DB4EB0421EDBDD4E070DBE19142E59
:104AF00009DD3427BF1B009EFE400196BE40009F8B
:104B0000BE420BD00FE0009F002F0CD11427BF1B1B
:104B10000646FE400196BE40864204D1019BDE0758
:104B2000F60F02239B1B0E46164318D1002D16DAF2
:104B3000002C03D0022B01D0012B06D00220FCF761
:104B4000C0F8FFF74BFF19B0F0BD0220FCF7B9F831
:104B5000FFF744FF0122D207514019B0F0BD009E7B
:104B6000002E61D1BC4EB04220D1BE48844201D15A
:104B7000002A08D0B648814209DB002D10DB1698C8
:104B8000294619B0F0BD0020B14919B0F0BD002D83
:104B900006DA01222946D2071698514019B0F0BD15
:104BA000B14979440868496819B0F0BDA84FB842C6
:104BB00025D1002D1FDA002904D0B14212D1002ADC
:104BC00009D018E0002A72D1A349E20F0020D207D1
:104BD000114319B0F0BD0020E20F0146D207114386
:104BE00019B0F0BDB14206DA234600203946FCF781
:104BF0006FF819B0F0BD1046214619B0F0BDB142B2
:104C000012DA0126B607B54203D1234610461946EB
:104C1000EFE3964EB54207D1261E05DB104631461E
:104C200000F0F0FB19B0F0BD67007F081646002ABF
:104C300040D100290AD0884A914229D1002C0EDDAA
:104C4000002D1CDB0020114619B0F0BD022B16D040
:104C5000002C14D0012B12D1002C14DB0FE0002CFF
:104C600028DA002D09DB012B03D000207A4919B086
:104C7000F0BD00207E4919B0F0BD012B03D000200B
:104C8000014619B0F0BD00200121C90719B0F0BDDF
:104C90006F4A91420ED1002C01DA002B17D0022B63
:104CA00006D00020C043FBF7FEFD19B0F0BD7AE24C
:104CB0000120F8E7E217521C94461A4307D000225D
:104CC0000692634C62465B1E1A4307D009E001203E
:104CD000FBF7F7FFFFF790FE19B0F0BD0022614C23
:104CE0000692644A90427DDD634B644A98420ADD35
:104CF000914202DC002D10DB25E05548814202DBA9
:104D0000002D0ADC1FE0914202DA002D05DB1AE0DB
:104D10004F4B994223DD002D15DD0220FBF7D1FF1B
:104D2000FFF772FE05460E4600224B4B21460698C1
:104D3000FBF7C4FD084671004908C00FC0070143D6
:104D4000284619B0F0BD0220FBF7BBFFFFF766FE57
:104D500049004908E20FD207114319B0F0BD002203
:104D600030463946FBF75BFD012205460E46D2432D
:104D7000FCF7D2F9424A434BFBF75CFD2A46334627
:104D8000FBF79CFD0022394BFBF754FD07462A46F2
:104D90003346019110461946FBF790FD3A46019BB8
:104DA000FBF78CFD0746032007912A463346400750
:104DB0003549FBF783FD01910890344A324B384660
:104DC0000799FBF77BFD07460291314A314B284694
:104DD0003146FBF773FD3A46029BFBF720FD074681
:104DE0000B4600E013E00246079101990898FBF793
:104DF00009FD00250E462846019B089AFBF70FFD8A
:104E00003A46079BFBF716FD02460B468DE101254E
:104E100000202D05A94207DA352230463946FCF735
:104E20007BF906463420C0430A1512180C48084F77
:104E3000101803900803000B0146394304911649EA
:104E400088422BDC00202DE0FFFF1F00FFFF0F003A
:104E50000000F03F0000E0FF0000F07F0000404352
:104E600001FCFFFF0000F0BF5A0A00000000E03F15
:104E70000000F0FF0000E0410000F043FFFFEF3FC3
:104E8000555555555555D53F4715F73FFE822B656E
:104E900044DF5DF80BAE543E8E980300FE49884215
:104EA00002DA01200F9007E000200F900398401CC9
:104EB00003900498401B0490049909910F98F749B6
:104EC000C00079440D90081843680268304609997B
:104ED000FBF7A5FC0191F249089079440D98081858
:104EE0004368026830460999FBF78CFC02460B4682
:104EF00000203946FBF7ECFE07910A90019B089AC7
:104F0000FBF7DCFC1090E7480F460025784400686A
:104F100004990C9048100121490708430F9989040E
:104F200040180121C90441180491DF4979440D98C2
:104F300008184368026804990C98FBF770FC324625
:104F4000099BFBF777FC2A463B46FBF7B7FC099128
:104F5000064628463946049B0C9AFBF7AFFC019B9A
:104F6000089AFBF767FC3246099BFBF758FC079B46
:104F70000A9AFBF7A3FC0F91109A00903B4610464B
:104F80001946FBF79BFC06460246C8480B460791AC
:104F900006217844FFF7CCFC079B32460191049030
:104FA00010461946FBF78AFC019B049AFBF786FC26
:104FB000019106463B4628461946109AFBF722FC0B
:104FC0000F9B009AFBF77AFC3246019BFBF71AFC19
:104FD0002A463B460191089010461946FBF76EFCA5
:104FE00002460B4607910A900020B149FBF70AFCE4
:104FF000019B089AFBF706FC0E462A46AC4B284656
:10500000FBF70DFC079B0A9AFBF709FC019B089A2A
:10501000FBF710FC2A460991129033461046394698
:10502000FBF74CFC019108903B46109A09991298A5
:10503000FBF744FC0746079133462A460F99009830
:10504000FBF73CFC3A46079BFBF7DCFB07460B46AD
:105050000246079101990898FBF7D4FB0E462846B3
:10506000019B089AFBF7DBFB3A46079BFBF7E2FB49
:105070000746072007912A46334640078D49FBF72C
:105080001DFC029000918C4A8A4B38460799FBF729
:1050900015FC074601912A46334688488849FBF7A4
:1050A0000DFC3A46019BFBF7ADFB864A05467A4468
:1050B0000D981018436802682846FBF7A3FB089078
:1050C00001910398FBF7EFFB0B910746019B089AB0
:1050D00000990298FBF796FB7B4A05467A440D98A7
:1050E0001018436802682846FBF78CFB3A460B9B76
:1050F000FBF788FB00250E463A4628460B9BFBF73C
:105100008EFB724A07467A440D981018436802686D
:105110003846FBF784FB009B029AFBF780FB019B60
:10512000089AFBF787FB02460B461799002002906E
:105130000F461698FBF7C2FB039100903B46029A7C
:1051400017991698FBF76BFB2A463346FBF7B6FB1D
:10515000039B009AFBF756FB07910C902A463346B7
:1051600039460298FBF7AAFB06460F46079B0C9AA6
:10517000FBF748FB564A0D46914220DB5242AA18E3
:10518000024310D132463B46FBF749FB039108909E
:10519000504A514B07990C98FBF734FB039B089A34
:1051A00000F054F91ED20220FBF78BFDFFF72CFC18
:1051B00049004908E20FD207114319B0F0BD6A0057
:1051C000464B52089A420DD3454AAA18024300D0D2
:1051D000B9E532463B46FBF722FB079B0C9A00F0F1
:1051E00035F9F5D96A00002352083E480393110DA2
:1051F0003D4B09189A4223DD01221205491CCA4081
:1052000052195100490D0818384979440968134664
:105210008C463749C1408B4312030121120B09050B
:1052200051181422101AC1400391002D01DA48428E
:105230000390624630463946FBF7F1FA06460F46C0
:1052400032463B4607990C98FBF7DCFA00252A46C4
:10525000284B28460B91FBF731FB01910890264A19
:10526000264B28460B99FBF729FB0291009032460A
:105270003B4628460B99FBF7D2FA079B0C9AFBF7A3
:10528000D9FA1F4A1F4BFBF719FB029B009AFBF749
:10529000B9FA07460B4637E07AB60B003206000033
:1052A0001A060000F0060000C80500009205000084
:1052B0000000084009C7EE3FFD033ADCF5015B142E
:1052C000E02F3EBE6604000028040000FE0300003C
:1052D00000009040FE822B654715973C00CC904023
:1052E00000346F3F01FCFFFF0000E03FF2030000CD
:1052F000FFFF0F00432EE63F396CA80C615C20BE17
:10530000EF39FAFE422EE63F0246079101990898CE
:10531000FBF778FA0E460546019B089AFBF77FFAE1
:105320003A46079BFBF786FA07912A4633460C90CC
:1053300010461946FBF7C2FA074602462F480B46AD
:105340000B9105217844FFF7F3FA3A460B9BFBF7E4
:10535000B5FA2A463346FBF76DFA07460991284607
:105360003146079B0C9AFBF7A9FA079B0C9AFBF7AF
:1053700049FA01230191089000229B0738460999B8
:10538000FBF74DFA07910A903A4628463146099BA9
:10539000FBF794FA079B0A9AFBF79AFC019B089A81
:1053A000FBF73DFA2A463346FBF739FA0022144B45
:1053B000FBF740FA054603980E46000581190915CA
:1053C000002911DC28463146039AFBF7A5FEFFF7BA
:1053D00099FA042801D1FFF721FB28463146039AA8
:1053E000FBF79AFE054600E031180B462A46214697
:1053F0000698FBF763FA19B0F0BD00001002000038
:105400000000F03FF8B506460C46FBF7B5FE051E5A
:105410000F4600D00120014349000B484908411ABA
:10542000C90F0DD0002E01D0012100E000210C4356
:1054300061004908401AC00F02D10120FBF741FC6E
:1054400028463946F8BD00000000F07F70B5012500
:105450002D051C000C4310D4EC4206D4AC420AD4F7
:105460008B4200D070BD824270BDEB4217D4E9423E
:1054700015D48B4270BD9B4270BDEC4206D5AC4248
:10548000F9D5994200D070BD904270BD6D005C00AE
:10549000EC4204D24C00EC4201D2994270BD0FB4F0
:1054A0000CBC03BC024C30B4FBF7EAFE30BC70BD50
:1054B000190016048182838485868788898B8C8D68
:1054C0008E8F919293959697999A9C9D9FA0A2A357
:1054D000A5A7A8AAACAEB0B2B3B5B7B9BCBEC0C29E
:1054E000C5C7C9CCCED1D4D7D9DCDFE2E6E9ECF030
:1054F000F3F7FAFE00000000000000000000F03F9B
:10550000000000000000F83F000000000000000064
:105510000000004003B8E23F00000000000000006F
:1055200006D0CF43EBFD4C3E033333333333E33FFD
:10553000FFAB6FDBB66DDB3F4D268F515555D53F29
:1055400001411DA96074D13F65DBC9934A86CD3FF7
:10555000EF4E454A287ECA3F3E5555555555C53FE5
:1055600093BDBE166CC166BF2CDE25AF6A56113FD7
:10557000F16BD2C541BDBBBED0A4BE726937663ED9
:1055800080807F7E7D7C7B7A797877767675747380
:10559000727171706F6E6E6D6C6C6B6A6A6968683F
:1055A000676666656464636362616160605F5F5ED5
:1055B0005E5D5D5C5C5B5B5A5A595958585757564B
:1055C00056555555545453535252525151505050B0
:1055D0004F4F4F4E4E4D4D4D4C4C4C4B4B4B4A4A02
:1055E0004A49494948484847474747464646454546
:1055F000454444444443434343424242424141417F
:10560000000000000000000000000000000000009A
:105610000102030406070809000000000102030458
:10562000030406080C101820300000005056000833
:10563000000000201000000004010008605600086F
:1056400010000020300800002001000800000000C9
:105650000000200001000000040000000000000025
:04000005080000C12E
:00000001FF
